:020000040000FA
:10000000F80B002051070000F50700003927000019
:10001000432700004D2700006127000057270000FC
:100020000000000000000000000000001D0F0000A4
:10003000F507000000000000C90E0000F5070000F1
:10004000F5070000F507000000000000F5120000B1
:1000500000000000F50700000000000000000000A4
:10006000F5070000F5070000F5070000F5070000A0
:10007000F5070000F5070000F5070000F507000090
:10008000F5070000F5070000000000000000000078
:10009000F5070000F5070000000000000000000068
:1000A000F5070000F5070000F5070000F507000060
:1000B000F5070000F5070000F5070000F507000050
:1000C000F5070000F5070000F5070000F507000040
:1000D000F507000000000000F50700000000000028
:1000E000F507000000000000F5070000F50700001C
:1000F00000000000F507000000000000F507000008
:10010000000000000000000000000000F5070000F3
:10011000F507000000000000F5070000F5070000EB
:1001200000000000F50700000000000000000000D3
:1001300000000000000000000000000000000000BF
:1001400000000000000000000000000000000000AF
:10015000F5070000407C0000201E00203D0000004C
:10016000A0250000400C002000000000A025000099
:10017000200C002000000000201F00209C06000032
:10018000400C002078040000200C00200800000033
:10019000000C00200800000000015F5F000000006C
:1001A000FE0F0000B10F000000040000000000007E
:1001B000000000000000000000000000000000003F
:1001C000402000200000000001015F5F03010000EB
:1001D0001F01000081020000000800000000000074
:1001E000010000000100000000000000000000000D
:1001F000881000200000000070000000EC58000093
:1002000080000000000F000001000000410300001A
:100210000100000001015F5F040100001F010000F8
:10022000490600000005000000000000000000007A
:1002300001000000000000000000000088180020FD
:1002400000000000F7580000400000000507000013
:0C02500001000000350500000100000066
:1002600038B50025054C29462046D4F80024C4F8AA
:10027000045402F078FAC4F8005438BD400C002051
:1002800008B500F015F940B900F03CF900F048F964
:1002900018B9BDE8084002F087BC08BD13B5114687
:1002A0000022CDE9002242680346302A04683ED18C
:1002B00094F82C20022A18D01AB900F01BF902B0C9
:1002C00010BD1E482468D0F80404013ACDE900406E
:1002D000072A2FD8DFE802F004090D12171C212687
:1002E0006A46184600F003F9E9E7184600F0EDF811
:1002F000E5E76A46184600F0EBF8E0E76A4618467C
:1003000000F0E0F8DBE76A46184600F0E4F8D6E7CC
:100310006A46184600F0E2F8D1E76A46184600F04F
:10032000E0F8CCE76A46184600F0DEF8C7E76FF061
:100330008000C4E76FF08500C1E700BF400C0020DB
:100340002DE9F04F056804469FB0002D40F0AA80CB
:100350002022294602A802F006FA12AF20222946DE
:100360000AA802F000FA30222946384602F0FBF9CA
:10037000A26904F118039846B2B10426A26A04F1F6
:100380002803EAB10425EEB96FF0830630461FB0AA
:10039000BDE8F08F002EF1D053F8041D3246013E27
:1003A0000029F7D01646E9E70326F5E7002DEAD045
:1003B00053F8041D2A46013D0029F7D01546E2E70F
:1003C0000325F5E730233A460021606802F014FA6D
:1003D0003028D9D14FF00109CDE90270334F0DF12A
:1003E000080A04F10C0B4E45D7F800141CD10DF18E
:1003F00028094B46002008EB850EC64533D108B1CD
:10040000C7F80014A3683146C7F804340AAA2B467B
:1004100002A8FFF743FF00270646BD4209F108097D
:1004200038D1FFF71DFFB1E75BF8043FC1F58062EB
:10043000D81C20F00300904204D9FFF711FF6FF0A1
:100440008C06A3E70844CA19C7F800044946606847
:10045000019202F0D1F9019ACAF80C0009F10109E0
:100460004AF8082FBFE758F804CFC1F5806A0CF1AD
:10047000030222F00302524503F1080305D878185D
:1004800043E9020C11440120B7E70028D5D0C7F892
:100490000014D2E7394659E90223606802F0B6F940
:1004A0000137BAE76FF0850670E700BF400C002007
:1004B00008B528220021024802F055F9002008BDA5
:1004C000481000206FF0850070476FF0850070477E
:1004D0006FF0850070476FF0850070476FF0850002
:1004E00070476FF0850070476FF0850070476FF0C0
:1004F00085007047D1E9000102F036BBC0E9002158
:100500007047000010B5044C0F222046034902F04A
:10051000A3FB204610BD00BF711000202C07000077
:1005200008B50121024802F0B9FA002008BD00BF59
:1005300070100020F0B503680546B3F57D7FA7B0C5
:1005400007D040F2F532934207D06FF0850027B014
:10055000F0BD00F07FFB0020F9E700243C2221469B
:1005600007A8CDE90244CDE90444069402F0FBF863
:100570003C22214617A8169402F0F5F8AA690194C6
:1005800005F1180302B30426AA6A05F128033AB359
:100590000424731E012B52D8012C50D804230021AF
:1005A00068680DEB030202F027F904281AD06FF0F7
:1005B0008000CCE7002EE7D053F8041D3246013E00
:1005C0000029F7D01646DFE70326F5E7002CE0D038
:1005D00053F8041D2246013C0029F7D01446D8E701
:1005E0000324F5E7022E16D12E69402E29D806AF36
:1005F00033463A460121686802F0FEF88642D6D1B9
:10060000CDE9027602A944B92246019800F034FBF4
:10061000044620469BE70021F5E7EB69402BC6D84E
:1006200016AACDE90423019804AA00F025FBDDE910
:10063000042304460021686802F0E8F8E9E7012095
:1006400085E76FF0890082E7002070472DE9F04FC1
:1006500000259BB004A8049502F0F2F84FF01808AA
:100660000646DFF8C090304FB54201D1002024E0AB
:1006700008FB05FA049B03EB0A02116949454FD1B7
:100680000021946808A853F80A20FFF737FF2022BA
:10069000002112A802F067F80DF10E02049B0192EE
:1006A00007AA53440092D3F814B0202106AB05AA40
:1006B0000AA8D84720B16FF092001BB0BDE8F08FB8
:1006C0004FF6F8714FF6FF72099B1593069B8B420C
:1006D00088BF1346ADF84A30079B089A1793BDF8B8
:1006E0000E30ADF84830049B53441B69139313F04C
:1006F000FF0308BF1A4648235C4304F124000DEBB6
:1007000003013C4414923844202202F0A5FA20460A
:10071000059A0AA902F0A0FA059B236201236364EB
:100720000135A1E701010080881D00206D6265642C
:1007300020544C5320332E332E3000000000000094
:10074000701F00000100000000F028BB0000000046
:1007500008B572B61E4A1F4B9A601F4B83F3098877
:100760001E4B83F30A8883F30B881D4B16A1D1E936
:100770000001C3E9000100F053F81A4B1A498B42FB
:1007800012D30020194B1A498B4218D301F094FF61
:10079000186850F82240586840F8224001329868A2
:1007A0008242F5D30C33EAE70022F8E71C6844F8EC
:1007B000220001325C68A242F8D30833E4E7002249
:1007C000F8E700BFAFF30080A5EDF5FEA5EDF5FE5F
:1007D0000000000000ED00E0F80B00200004002005
:1007E000F80B00205401000078010000780100009F
:1007F00098010000FFF7A8FFFEE700004FF47F0319
:10080000D3F83021D3F83431072A05D1023B032B2A
:1008100002D8024AD05C704700207047442500008F
:10082000694A08B5D2F8D03043F00203C2F8D0309C
:10083000FFF7E4FF58B1654BD3F8202A3AB90D21F0
:10084000C3F8201A0121C3F81C19C3F81C2900227F
:10085000D30003F57F03D3F80013013107D0D3F899
:1008600000130132D3F80433202A0B60F0D1FFF7D4
:10087000C5FF002840F0A080FFF7C0FF40B1544BF7
:10088000544AC3F830254FF050230122C3F85825AD
:100890004FF47F03D3F83021D3F83431072A09D13C
:1008A000023B032B06D84C4AD35C1BB100224B4BB6
:1008B000C3F84C25FFF7A2FF50B14FF05023D3F8F7
:1008C0000024D10742BF0022C3F81421C3F8182125
:1008D0004FF47F03D3F83021D3F83431072A09D1FC
:1008E0004FF05023D3F80024D20744BF6FF0010229
:1008F000C3F80024FFF782FF18B16522334BC3F819
:100900000C274FF47F03D3F83021D3F83431072A72
:1009100016D1324BD3F82034002B11DA4FF050238C
:100920000322C3F8182501229A60D3F80421002A73
:10093000FBD00022C3F804210122DA60C3F8182595
:100940004FF47F03D3F83021D3F83431072A23D171
:10095000023B032B02D8224AD35CEBB17E221B4B15
:100960001B49C3F80C27C3F83C297F231D4AC2F852
:1009700018310023C1F8043EC1F8083E01F54821B2
:10098000C1F81031C2F82431C2F82C3102F5FF123F
:1009900002F58052C2F8A0320B4AD2F88C3043F4F0
:1009A0004063C2F88C30104A104B1168C3F84415EC
:1009B000D269C3F84C2508BD2922044BC3F80C2783
:1009C0000322C3F83C2757E700ED00E00040005049
:1009D000009003504400EFBE40250000002003506B
:1009E0003C250000002000500080FF000060005007
:1009F000003A18BF0122003918BF0121036889009D
:100A0000074841EA4201186359605A6842F00102FE
:100A10005A60BFF34F8FBFF36F8F0020704700BF46
:100A200004AAFF004B6830B513F01F052DD10268F2
:100A30000C681068C0F30720844226D250685560C5
:100A400094600C7C23F01F0304F001041C438B7C96
:100A5000DB0003F018031C434B7C5B0003F0060330
:100A60002343D3608B68013B23F01F04CB685B00FA
:100A700003F00E03234343F0010313615060BFF3FF
:100A80004F8FBFF36F8F284630BD0120FCE703680E
:100A900000205A68C9B258609960D86018615A60DD
:100AA000704770B50546002403681E68C6F3072624
:100AB000B44201D1002070BD21462846FFF7E7FF70
:100AC0000134F5E70722024BC3F80423704700BF47
:100AD000003000500022074BC3F80021D3F800116A
:100AE000C3F80421D3F80411C3F80821D3F808315E
:100AF000704700BF0030005000231720094A03F55B
:100B0000C0710133402B42F82100F8D10023172097
:100B1000044A03F5E0710133402B42F82100F8D17B
:100B2000704700BF0030005010B59DF80840800BA2
:100B300043EA0423064C890B43EA0213884200D996
:100B400010BDC2B202F5C07244F822300130F5E7A0
:100B50000030005010B59DF8084000F1604043EAB5
:100B6000042301F16041074C400B490B43EA021397
:100B7000884200D910BDC2B202F5E07244F82230BA
:100B80000130F5E700300050C0F30D03C3F580439A
:100B9000B3FA83F3C3F11B03064AC0F38730DBB219
:100BA00040F4807043F48073C2F80005C2F8043545
:100BB000704700BF0030005080037047800300F58D
:100BC0007F503F307047002070473F2070474FF400
:100BD0008040704700F57F40C03040037047000000
:100BE0004303014818447047FF1FF81F4020704717
:100BF0007F2070474FF4005070470000044BC0F353
:100C00000730090200F5007043F82010704700BF5C
:100C10000030005008B501F0ADFA68B902F086F86E
:100C200058B9074AD36823F008031B041B0C43F090
:100C3000BF6343F40033D36008BD45F22350FBE7A4
:100C400000ED00E000207047002070470020704752
:100C500070470000BFF34F8F0549064BCA6802F486
:100C6000E0621343CB60BFF34F8F00BFFDE700BFCF
:100C700000ED00E00400FA050346084611461BB1EA
:100C8000012B03D00320704700F014B800F042B8E5
:100C9000BFF34F8F0549064BCA6802F4E062134365
:100CA000CB60BFF34F8F00BFFDE700BF00ED00E05A
:100CB0000400FA05F8B543680C2B26D14B68042BC9
:100CC00023D14FF0FF3304680E6821683360E1B12F
:100CD000A268D2B10623012000F0B3F9A8B9616877
:100CE0000B4BD3E9005CA9420AD3A26865448F1874
:100CF000AF4205D8206801F0AFFF00203060F8BD9A
:100D00000130042803F10803EBD10220F7E700BF0C
:100D100048250000436870B50C2B32D14B68042B7A
:100D20002FD14FF0FF3306680C683068236050BB4A
:100D30007268550903D0012D1CD14FF6FF7302F0E4
:100D40001F02D340D90719D5B168072916D88B23BC
:100D5000CB40DB0712D57DB1012D16D10D4B03EB36
:100D60008203D3F8002222F0E04242EA0172C3F883
:100D700000220023236070BD074BF0E74FF0FF33E4
:100D8000F8E70220F7E70320F5E70023803253F865
:100D90002230FFDE0028845000258450FFF778BF02
:100DA00008B5114B83F30A88104800F06BFA58B964
:100DB000FFF730FF40B9FFF745FF28B9FFF744FFC1
:100DC00028B1FFF743FF20B1FFF7E8FF05E0FFF789
:100DD0003FFF00F0EBF800F03DFC00F0D3F800F02E
:100DE0003FF8002008BD00BF000400204024002080
:100DF000F8B501F00C030C2B0CBF154605464A064E
:100E00000C4601F008061AD58B0658BF2835AB6989
:100E100013F8027CB6FA86F35B09B3EBD71F01D057
:100E2000FFF7BCFF402F15D0412F0DD100F090FDF2
:100E300004460146094800F02DFC2046F8BDFFF7A6
:100E4000ADFF0EB9FFF7AAFF6FF08300286000F036
:100E5000E2FEF2E7284600F003FCEEE7F80B002084
:100E600041DF704770B572B6BFF36F8F1446EFF372
:100E70000B855FF0000C002A1FBF8CF30B886C46BB
:100E8000954683F30B880F4A0123136062B6BFF3C4
:100E90006F8F0E4600F0A8FD72B6BFF36F8F31461C
:100EA00000F0B8FD5FF0000C002C1EBF8CF30B8827
:100EB000A54685F30B88034C0025256062B6BFF379
:100EC0006F8F70BD44240020402010EA0E0023D014
:100ED00001B501F041F8BDE8044088421CD072B66B
:100EE000BFF36F8FEFF309821EF020031CBF22E9CE
:100EF000F00F083A80E80440B1E804401EF02003F7
:100F00001CBF0832B2E8F00F0B6882F3098883F344
:100F10000B8862B6BFF36F8F70470000EFF3088055
:100F20007146EFF30982EFF30B830CB406B4FFF7BD
:100F30005FFF864606BC0CBC00F0080001F008010B
:100F4000401A01DC12DB70470CB41EF020031CBFFA
:100F50002DE9F00FBDF1080D094C25462646274620
:100F6000A046A146A246A34630B4704730BC1EF04E
:100F700020031CBF1DF1080DBDE8F00F06BC704733
:100F8000A5EDF5FE084BDA6882F07F4282F47F021D
:100F900042F48042DA6000221A765A76DA76DA77FC
:100FA000602283F82220704700ED00E070470000C7
:100FB000009A0A4B9A420FD1012290430146024601
:100FC0000346044605460646074680468146824655
:100FD0008346844686460447FEE70000A5EDF5FEFD
:100FE000F0B510B943F6DA30F0BD0029FAD000228E
:100FF0000C2418258368C3F3802343F002030B609D
:10100000016A8A4201D10020EEE704FB02F3D0E935
:10101000067603EB870305FB063303449B6B1B0734
:10102000E0D40132EDE7EFF3148381F00201C1F364
:10103000400161F3000383F31488BFF36F8F002036
:1010400070472DE9F0410E461546002A4AD0C407E4
:101050004BD480F00204C4F34004A40003F0060261
:10106000062A4AD144F0010422462946304604F0BB
:1010700079FBB8BB46E800F205EB0608100E120239
:1010800008F1FF3747E800F34FEA136166D51B020A
:1010900064D5884262D046E800F547E800F7FFF7DC
:1010A00092FD2D0E85424FEA176734D3FFF78DFD71
:1010B000874230D82846FFF781FD2246C6F101015C
:1010C0000144304604F04EFB002847D00135AF42C2
:1010D00018D83846FFF770FD2246A8EB000104F04F
:1010E00041FBD8B30020BDE8F081EFF39484A40065
:1010F00004F0040444F01204B0E7990731D544F039
:101100000804B1E72846FFF757FD0646FFF75FFDE5
:1011100022460146D5E7FFF769FD85421ED3FFF75A
:1011200067FD87421AD82846FFF75AFD2246C6F1C6
:1011300001010144304604F015FB78B10135AF429E
:1011400003D83846FFF746FDC6E72846FFF742FDBD
:101150000646FFF74FFD22460146EBE76FF07F00A2
:10116000C1E74CF2DA20BEE7F0B53B4C87B03B4814
:10117000FFF797FC236801255A1C0193384B226026
:10118000DA681B694FF4407603930023334801A9C2
:1011900002920495ADF814608DF81630FFF742FC0A
:1011A00018B143F6DA3007B0F0BD23688DF81600A9
:1011B0005A1C01932B4B294802932B4B01A9CDE9D3
:1011C00003352260ADF81460FFF72CFC0028E8D14D
:1011D00023688DF816005A1C0193244B1F48029374
:1011E000234B01A9CDE903352260ADF81460FFF768
:1011F00019FC0028D5D1022740F2011623688DF88A
:1012000016005A1C01931B4B144802931A4B01A958
:10121000226003930497ADF81460FFF703FC0028E5
:10122000BFD123688DF816005A1C0193134B0B484D
:101230000293134B01A92260CDE90337ADF8146086
:10124000FFF7F0FB04460028ABD12A4629460348A5
:10125000FFF7CEFB2046A6E748240020241E0020EE
:1012600068250000A0250000E05A000040070000AB
:1012700040070000200C0020400C0020000C002043
:10128000200C002010B5044600F094F800F0A2F8FD
:1012900010B143F6DA3010BD00F0BEF80028F8D1E6
:1012A000FFF762FF0028F4D102232360F3E78842AE
:1012B00006D0830706D581F00200C0F340007047D6
:1012C000002070470120704708B5084BD3F8002173
:1012D000D3F80821D3F80431FFF7FCFB0822044BB4
:1012E000C3F88021BDE80840FFF758BD003000502A
:1012F00000E100E0FFF7E8FFFEE70000054B03EB2D
:101300008000D0F8003223F0E04343F04053C0F8AF
:1013100000327047002584500020034BD8765A6A6B
:1013200042F470225A62704700ED00E00349044B1A
:10133000CA68002092B21343CB60704700ED00E012
:101340000800FA05074A084B11680020C3F8441545
:10135000D269C3F84C250222C3F84025C3F84825BA
:10136000704700BF0080FF000060005000224FF077
:10137000FF30094B02F1A0010132102A43F821008D
:10138000F8D1D3F88022002022F00802C3F880228E
:10139000D3F88032704700BF00E100E008B5FFF7E6
:1013A00091FB0822024BC3F880211A60002008BD7F
:1013B00000E100E0064BD3F8D02022F00102C3F890
:1013C000D020D3F8D02042F00202C3F8D0207047DA
:1013D00000ED00E037B501250C4CFFF78DFBD4E99B
:1013E0000101072300220095FFF79EFB072300223F
:1013F000074908480095FFF7ADFB2169E06801390E
:10140000FFF7C2FB002003B030BD00BF682500001D
:10141000FFFF07200080002010B500214FF0A04002
:10142000FFF7ECFB00216148FFF7E8FB00214FF0DC
:101430005020FFF7E3FB00215D48FFF7DFFB0021B1
:101440005C48FFF7DBFB00215B48FFF7D7FB00217F
:101450005A48FFF7D3FB00215948FFF7CFFB002183
:101460005848FFF7CBFB00215748FFF7C7FB002187
:101470005648FFF7C3FB00215548FFF7BFFB00218B
:101480005448FFF7BBFB00215348FFF7B7FB00218F
:101490005248FFF7B3FB00215148FFF7AFFB002193
:1014A0005048FFF7ABFB00214F48FFF7A7FB002197
:1014B0004E48FFF7A3FB00214D48FFF79FFB00219B
:1014C0004C48FFF79BFB00214B48FFF797FB00219F
:1014D0004A48FFF793FB00214948FFF78FFB0021A3
:1014E0004848FFF78BFB00214748FFF787FB0021A7
:1014F0004648FFF783FB00214548FFF77FFB0021AB
:101500004448FFF77BFB00214348FFF777FB0021AE
:101510004248FFF773FB00214148FFF76FFB0021B2
:101520004048FFF76BFB00213F48FFF767FB0021B6
:101530003E48FFF763FB00213D48FFF75FFB0021BA
:101540003C48FFF75BFB00213B48FFF757FB0021BE
:101550003A48FFF753FB00213948FFF74FFB0021C2
:101560003848FFF74BFB00213748FFF747FB0124C2
:101570000021364A0846C2F88014C2F88444C2F8F2
:10158000C014C2F8C444C2F8C814C2F8CC44FFF76F
:10159000B5FE2046FFF7B2FE2D4B0846C3F80045C6
:1015A0004FF48073C2F8403410BD00BF00400050BB
:1015B000008000500090005000B0005000C000506B
:1015C00000A0005000E0005000F00050000001506A
:1015D00000100150004001500050015000700150B7
:1015E000008001500090015000A0015000B0015057
:1015F00000C0015000D0015000E0015000F0015047
:101600000000025000100250002002500030025032
:1016100000400250006002500080025000A00250C2
:1016200000B0025000D002500000035000300350C0
:1016300000400350006003500070035000900350BE
:1016400000258450002884500010085000300050BD
:10165000001000500122014B1A6070474C240020FA
:1016600010B50446094B22891B6861685868062337
:1016700050F8140CFFF7E5FC28B9054B1B68012B4B
:1016800001D100F021F90323236010BD242900209B
:101690004C24002004460D46A5462847036923B183
:1016A00019604FF0EE3343617047036899627047E9
:1016B00004484FF080510160BFF34F8FBFF36F8F2D
:1016C0007047000004ED00E02DE9F84304461E4693
:1016D0000068114B9046A268A0F1080540E902336A
:1016E000503890420F4601D2FFF758FBA5F1480948
:1016F00048220021484601F036F84FF0807345F843
:10170000043C6FF0020345E9036745F8208CC4E907
:101710000093BDE8F88300BFA5EDF5FE836883F371
:101720000B880368283383F30988406870470000FA
:10173000054A1368013303F007031360034A0133BA
:10174000801A03EBC000704750240020542400206E
:1017500018B1024B013803EBD0007047542400202D
:1017600010B5064800F066FC044628B1802200212E
:1017700000F0F9FF00232360204610BD5424002010
:10178000014608B5044800F066FC00280CBF6FF065
:10179000FC00002008BD00BF54240020014610B505
:1017A000EFF3108472B6034800F04FFC84F3108806
:1017B00010BD00BF54240020F0B50346EFF310869F
:1017C00072B60024426C00F14405204662B940B173
:1017D0000568012CEA6F0260284602BF5A698A43F5
:1017E0005A6186F31088F0BD97683F687F698F4221
:1017F00004BF2846013402F17C05D26FE6E7000001
:1018000030B5094C024661680023084640B10568BE
:101810006D68954205D11BB1826860609A608160F5
:1018200030BD03468068F1E70029002003689A680C
:10183000DB6812F4806F05D18B422CBF00206FF063
:10184000FA0070478B420CBF00206FF0FA0070471F
:1018500038B504462AB10B689B68DB0515D5002016
:1018600038BD0C4B1B685D681C2D01D1FFF796FA43
:10187000002255F81C3C99692C338A4203D053F856
:10188000040FA04204D19142E9D16FF0FC00E7E7D8
:101890000132F2E724290020F8B504461E460F461F
:1018A000154600212C220C3000F05DFF054BA7608F
:1018B0001B685B68C4E903651C3B6360069B63614E
:1018C000F8BD00BF24290020064B1B685B681C2B59
:1018D00004D053F81C3C0BB1586870474FF0FF30F0
:1018E000704700BF2429002010B5FFF731FF0446E0
:1018F000FFF746FF50B9FFF7E7FFA3685B681B6877
:101900005B68834218BF0024204610BD0024FBE71B
:10191000064B10B51B685C681C2C01D1FFF73EFA22
:1019200054F81C3C9868C0F3802010BD2429002086
:1019300038B5054648B100F00DFCB5EBD07F044644
:1019400001D0FFF72BFA204638BDFFF7BDFFF4E7C3
:101950002DE9F0410823802240F22C41154800F087
:101960003BFB0023144E154F73607B6000F0F6FBC9
:10197000DFF84C80304600F083F80446A8B13946C1
:101980008023424600F0E4F80546204600F042F984
:10199000206804F10801FFF723FB08B1FFF7FEF907
:1019A0002946204600F004FAE4E7BDE8F04100F0E3
:1019B0006FBA00BF54240020102900200029002005
:1019C00080280020002330B500F12802C0F1040473
:1019D00052F8041B21B1816F54F8125019444D6024
:1019E0000833202BF4D130BD084B094A1B6810B5D1
:1019F0005B68044619615A61D1E90223D1E900010B
:101A0000A047044600F007F9204610BD2429002015
:101A1000EDEEEEEE10B5094C23685B685A69084B91
:101A20009A4208BF086000F031FB2368834203D06C
:101A3000BDE81040FFF73CBE10BD00BF24290020C8
:101A4000EDEEEEEE70B505460C46EFF30583C3F3FD
:101A500008030BB1FFF7A2F9084B1A689368A34279
:101A600002D2D168A14206D2126821462846BDE8BA
:101A70007040FFF7F7B900231A46F6E70C2900205B
:101A8000F8B5054608B9FFF789F92C4E346814F10A
:101A9000290F50D82A4B196804F128038B424AD2E7
:101AA000D4E9063206200C3300FB0233226A02EB33
:101AB00042021344626A02EB820213449B00E31861
:101AC00001D2994201D2FFF769F923681D4A1B0C24
:101AD0001B04934201D0FFF761F92388B3F5817F9E
:101AE00001D3FFF75BF96368002B01DAFFF756F9C2
:101AF000154A176807F14C031360144A12689342A1
:101B000001D9FFF74BF9D4E9063206210C3301FB6A
:101B10000233226A3C6002EB42021344626A02EB27
:101B200082021344326802EB83026B683260BB644A
:101B30006F603846F8BD0027FBE700BF301E00206D
:101B40008425000000005F5F2C1E0020802500001F
:101B50002DE9F04F85B0884691460746029300B1C3
:101B600009B9FFF71BF9D7F800A0DAF818100AF145
:101B7000300303EB81030193DAF81C40234B1D680B
:101B800054B10C2101FB04541C60214B1B689C4286
:101B900001D9FFF703F92C4600262546B346DAF8AB
:101BA0001C305B4500D91CB9304605B0BDE8F08F4C
:101BB0001822019B02FB0B310023AB604B69C5E986
:101BC00000171E438B689A0516D5B9F1000F02D095
:101BD000029A802A03D00393FFF7E0F8039B13F0E7
:101BE000E00FD9B202D159F821301BB10391FFF7B0
:101BF000D5F8039949F82150D8F804300BF1010BBE
:101C0000AB60C8F804500C35C9E700BF281E00209F
:101C10007C25000070478230012808B506D8FFF700
:101C200077FE18B9BDE80840FFF7B8B808BD002036
:101C3000704700000C4B70B51B6804465D680E468B
:101C400055F8103C1C3D1BB1034201D1FFF7A6F82B
:101C5000002E05DA21462846BDE8704000F03AB96A
:101C60006869204070BD00BF2429002070B50E4671
:101C7000044610B1431E034201D0FFF78FF8134B07
:101C80002C221B6831465D68062355F8140C1C3D58
:101C9000FFF7D7F908B1FFF781F86B690BB9FFF7C8
:101CA0007DF86B69234201D1FFF778F82146284679
:101CB000FFF782FD38B100F10C012C22304600F014
:101CC000CBFF002070BD6FF08B00FBE724290020C4
:101CD000F8B506460D46FFF707FE044608B9FFF7BC
:101CE0005DF8A7680FB9FFF759F8E368991C20D091
:101CF0005A1C21D1A5B315F1820F13D10223236001
:101D0000EFF3108672B62946204600F01CF905460E
:101D100086F310882368022B24D12046FFF73EFD6E
:101D20002846F8BD15F1830FEAD0FFF737F80025F4
:101D3000E6E702232360FAE7002BF6DB2046FFF7F5
:101D400041FE3B689B689B0501D50223236015F18A
:101D5000810FD5D16369002BD2DBFFF71FF8CFE7E6
:101D60003546F4E700232360DAE7FEF791BF30B58C
:101D7000436844781C3BEFF3108572B618695A69C2
:101D800002400FD0022A08BF5A694FF0050002BF77
:101D900022F002025A611A6C0A6000221A6185F36D
:101DA000108830BD00280CBF20460220F7E7000055
:101DB000C36802680B432DE9F041C360044600206C
:101DC000936A11696064194407332062E06221F06C
:101DD0000701906823F00703C4E90931284B10F488
:101DE0000076236314BF0C23D369264D04BF9B00E8
:101DF0000C33073323F00703CB1A9769D168E361EB
:101E00005D60002519609D6066B902F1300505EB43
:101E100087054FF0180ED769324603F10C0C974234
:101E20001CD19F60A361002384F8340000F440605B
:101E300004F11C02B0F5406F84F83530E386A263EC
:101E400014D0114D9E4218BF0D46294604F13400AE
:101E50006FF00102BDE8F04100F04CB90EFB0258F2
:101E6000D8F8108001324CF8048BD8E7074B064DA8
:101E70001A60002E18BF0D4600F0A2F90346E4E7F1
:101E8000EDEEEEEE0C590000A52C00000C29002010
:101E900038B50C480C4D00F0F3F80C4B0C4A2846B2
:101EA0001A6000F049F92B6804465B6853F8141C6B
:101EB00053F81C0CFFF7B7F808B1FEF76FFF204688
:101EC00038BD00BF6F1D0000242900200829002014
:101ED000000C002038B50D46044608B9FEF75EFF39
:101EE000EFF3108372B66069284008BF256183F361
:101EF000108838BD38B50D46044608B9FEF74EFFC8
:101F0000EFF3108272B663692B43636182F310882A
:101F1000002038BD10B50C4691B188B103687BB183
:101F2000406868B15969436CE3674464FFF7E2FFB6
:101F300002216068FFF7CEFF01230020236010BD5F
:101F40006FF08000FBE708B5406801640221FFF7ED
:101F5000D1FF002008BD00002DE9F84300F096F8FD
:101F60001A4F04463B68A0F134065D68184B2946B9
:101F70001B68012B21D000B3A5F11C08B0451CD073
:101F8000EFF30982AB682833934201D9FEF706FFCD
:101F9000EFF3108972B6B168D8F80800FFF787F937
:101FA00038B1B16854F8340CFFF73DF808B1FEF7CA
:101FB000F5FE61683C6089F31088064B1B6813B11D
:101FC000B26902B11A602846BDE8F88324290020CE
:101FD00044240020082900202DE9F8430D46174627
:101FE0001E46044618B313B302F1040903FB09F8B3
:101FF00008F10C038B421AD10A46002100F0B3FB12
:10200000002004F10C031A46014601318E42106093
:1020100002EB090C104608D10020A8EB0908434444
:10202000C4E90037A560BDE8F8836246EDE76FF0CC
:10203000F800F8E7034638B1006828B102681A6072
:10204000002340F8043B7047704702680B1F41F8BB
:10205000042C0360704700F10C0399420DD3C91A98
:1020600083688B4209D943680433B1FBF3F203FB65
:102070001210031F5842584170470020704700005B
:10208000014B1860704700BF182900200D4B37B571
:102090001C6800230C4D01936CB120462B6801A9EC
:1020A0009847C0B20528607008D101996068FFF7B1
:1020B000F5FA01236370204603B030BD0128FAD041
:1020C000A468E9E71C29002018290020C9B20129C9
:1020D000064B417005D11A682AB1017812789142F5
:1020E00001D3034A10681860704700BF1C29002004
:1020F00020290020F8B50F4E0446306815461A46D0
:1021000018B1237807789F420BD3A06034606068D1
:102110002B46FFF7D9FA2046BDE8F8400121FFF72A
:10212000D5BF0646806810B107789F42F9D3A060FA
:10213000B460ECE72029002038B50546FFF7A6FF7C
:102140000446FFF7B5FA05B12C606068BDE8384079
:10215000FFF7E4BA4FF0FF307047000008B500F019
:1021600023F8034B986000F025F880F3888808BDB9
:1021700000ED02E008B5FFF7CFF810B143F6DA3012
:1021800008BDFFF7D3F80028F8D1FFF7DBF80028E7
:10219000F4D162B6FFF7EAF80028EFD1FFF7FEF8B6
:1021A0000028EDD0EAE70000014B1868704700BF37
:1021B00068250000014B1B681868704768250000FF
:1021C000014B1B6858687047682500002DE9F04FE7
:1021D0000E4699B0049304469146FFF799FB794B5C
:1021E00007461B68C6F307255B68A3F11C08F3B21A
:1021F00003933314059304D56FF0800019B0BDE844
:10220000F08F039BEB18042BF6D8002CF4D0FFF7CB
:102210008FFB63000690EFD56B4B04F01F0253F861
:102220002260002EE8D033683A4631465868FFF7FE
:102230000FFB002840F0BF803046C4F30721FFF7B2
:10224000F5FA0028D8D1EFF3108772B6FFF788FAB5
:10225000044687F31088002800F0B080FFF768FA82
:102260004FEAC50A0790022352464946D8F80800AB
:10227000FEF7E7FE0028BFD1039B0499DB00029321
:10228000029A0623D8F80800FEF7DBFE074600286E
:10229000B2D1202200210DEB020000F064FA2022CE
:1022A000002110A800F05FFA5246494608A800F045
:1022B000D3FC0DF1200A029A049910A800F0CCFC7E
:1022C000D3464FF00009A9452ED1002208AB0132B8
:1022D00095424CD80DF14009CB46039B9F4249D112
:1022E000069B2046079A00933146059BFFF7D4FAD8
:1022F000224604EB850504F114031435C4F10800EB
:10230000AB420AF1080A43D10025029B04F12401E3
:1023100023449A4209F1080943D1049B21463046DF
:10232000A367FFF7F7FD69E7DBF8042002235BF8FA
:10233000081BD8F80800FEF784FE00287FF45CAF85
:1023400009F10109BFE7D1F80890C868D3F800C0C7
:102350004844844504D258688444E145FFF44CAFB6
:102360000EF1010E0831AE45EDD10833AFE7194645
:102370009646F8E7DBF8042006235BF8081BD8F83C
:102380000800FEF75EFE00287FF436AF0137A4E7B1
:102390005AF8041C43F8041F5AF8081C40F813109C
:1023A000AEE759F8040C41F8040F59F8080CC2E9DB
:1023B00016050832ADE76FF081001FE76FF082006D
:1023C0001CE700BF242900208028002040F20110D3
:1023D000704770B50546FFF79BFA06462846FFF79B
:1023E0000FFA044608B9002070BD0146324628465F
:1023F000FFF72EFA0028F6D12368D868F4E700002A
:102400002DE9F04799461C4B0E461B689046D3F8C1
:1024100004A0FFF769FA044608B9FEF7BFFCE368B9
:10242000002B01DAFEF7BAFC032E01D9FEF7B6FC49
:1024300004EB8607BD69DDB106234A4641465AF8DA
:10244000140CFEF7FEFD08B1FEF7A8FCBB694D4673
:10245000994528BF1D4604EBC6042A464046A16B99
:1024600000F0FAFBA36B2B44A363BB695B1BBB614E
:102470002846BDE8F08700BF2429002070B50E462D
:102480001546FFF731FA044608B9FEF787FCE36802
:10249000002B01DAFEF782FC032E01D9FEF77EFC49
:1024A00004EB8601886958B185422A4628BF024656
:1024B00004EBC604A36B801A1344A363886110461F
:1024C00070BD00002DE9F8431D461B4B0F461B68ED
:1024D00090465B68A3F11C09FFF706FA044608B9A9
:1024E000FEF75CFCE368002B01DAFEF757FC032FD4
:1024F00001D9FEF753FC04EBC70604EB8704A36A7B
:10250000F26D9B1AAB4201D2FEF748FC02232A4629
:102510004146D9F80800FEF794FD08B1FEF73EFCED
:10252000D6E916032A461844414600F095FBF36DA0
:102530002B44F365BDE8F883242900200000000146
:1025400001010000010000000002FF002C0000005B
:102550005004FF00100000003001FF0008000000E0
:10256000200CFF000400000000800000008000003C
:10257000FFFF0F00007C0000008000001C200020F6
:08258000042000205C020000B1
:1025A000009A1F4B9A4208D110B500F0FBF800F0DA
:1025B000BDF806BC96460C4674470FDFFEE7009A4E
:1025C000174B9A4208D110B500F0F4F800F0AEF8BD
:1025D00006BC96460C4674470FDFFEE70CB4029A21
:1025E0000F4B9A4209D10CBC10B500F0EBF800F08B
:1025F0009DF806BC96460C4674470FDFFEE7009A2E
:10260000074B9A4202D10749086874470FDFFEE77B
:10261000009A034B9A4200D174470FDFFEE7000097
:10262000A5EDF5FE201E00200348044B834202D096
:10263000034B03B118477047141F0020141F0020DC
:10264000000000000548064B1B1AD90F01EBA3013F
:10265000491002D0034B03B118477047141F0020E4
:10266000141F00200000000010B5064C237843B969
:10267000FFF7DAFF044B13B10448AFF300800123E6
:10268000237010BD1C20002000000000C85A00006C
:1026900008B5044B1BB104490448AFF30080BDE802
:1026A0000840CFE70000000020200020C85A0000AA
:1026B000A3F5803A704700BF174B002B08BF134BA0
:1026C0009D46FFF7F5FF00218B460F461348144A3D
:1026D000121A00F048F80E4B002B00D098470D4B13
:1026E000002B00D098470020002104000D000D4869
:1026F000002802D00C48AFF3008003F0ABF82000B4
:102700002900FEF74DFB03F091F800BF0000080020
:102710000000000000000000F80B0020201F002037
:10272000903900200000000000000000002383F327
:1027300000887047FEF732BBFFF7FCFFFEE7FEF7AD
:102740002DBBFFF7FCFFFEE7FEF728BBFFF7FCFF02
:10275000FEE7FEF723BBFFF7FCFFFEE7FEF71EBB1D
:10276000FFF7FCFFFEE70346F0B5C9B252B9940883
:1027700003EB84041344A34211D1F0BD03F8011B01
:10278000013AF3E79C07F9D14FF0013514464D4368
:10279000D618032CEBD9371B3D60043CF9E704F84D
:1027A000011BE8E7024B1B685B689B68184700BF8A
:1027B000000C0020024B1B685B685B68184700BF79
:1027C000000C002010B4034C246864682468A446FC
:1027D00010BC6047000C0020024B1B685B68DB6884
:1027E000184700BF000C0020024B1B685B681B6988
:1027F000184700BF000C002010B4034C2468646824
:102800006469A44610BC6047000C002010B4034C5F
:1028100024686468E469A44610BC6047000C00208A
:10282000024B1B685B681B6A184700BF000C002046
:10283000024B1B685B685B6A184700BF000C0020F6
:102840000020704701680E4A0346914215D1C169C4
:10285000A2F11022A2F1EF1291420ED18268012A58
:102860000BD8C26812B101698A4206D0586928B1F2
:102870009B691B1A5842584170470120704700BF9E
:1028800055AA00FF0D4B70B59E68A6B13046FFF704
:10289000D9FF044678B9F3686BB935690DB920469C
:1028A00070BD2846FFF7CEFF28B9EB68B34202D1CE
:1028B0002E462D69F2E70124F1E700BF2829002008
:1028C0002DE9F041394E3468F368D4B1B468C4B12D
:1028D000002861D000295FD001FB00F5B5FBF0F0C6
:1028E000884259D1291D57D8AA070DD025F00302D7
:1028F00004321C4603E0616891424FD2A469002C67
:10290000F9D12046BDE8F0812A46F2E7891A232949
:1029100004F12007D4E9050C1AD80123A360A0B163
:10292000C0F818C0A36903B158610023C4E9053396
:102930003369DB0702D5FFF7A5FFA0BB2A460021BC
:1029400038463C46FFF70FFFDBE7C6F80CC0E9E767
:1029500002F1200804EB08032039C3E9011E2169B4
:10296000DFF84CE0DC60196144F808E0AEF1102EAD
:10297000AEF1EF1EC3F81CE001B1CB60C3E9050C5A
:1029800040B18361996901B14B6101212361C4E9BF
:102990000121CAE7F360F5E70024B2E7D4F808E0C4
:1029A000BEF1000FB2D0012002F040FF2829002024
:1029B00055AA00FFF8B5054600283AD0364E3368D0
:1029C000002B36D0B268002A33D0834203D8726815
:1029D0001344984202D3012002F028FFA0F1200402
:1029E0002046FFF72FFF0028F5D155F8183C012BA2
:1029F000F1D145F8180C55E90570DFB1BB68CBB9CA
:102A000055F81C2C7B68203213447B60386100B180
:102A1000C760202200212046FFF7A5FE386908B1D3
:102A200083682BB333699B0703D5FFF72BFF00287F
:102A3000D1D1F8BD40B3836833BB426863681344A7
:102A4000203363600369D4E90521236192B9B9B9E0
:102A5000426981696261A161A2B19461A26902B116
:102A6000546103B1DC6020220021FFF77CFED9E72E
:102A70003C46E2E79161A1690029E9D04A61E7E7B4
:102A8000F160F8E7F460E9E7F36845F8083C03B162
:102A90005C61F460C6E700BF2829002038B50D4608
:102AA0001422002104461248FFF75DFE1149124826
:102AB00000F030F8232D1AD914F003031FBF043D92
:102AC000ED18C3F10403E4182A4600212046FFF75D
:102AD0004AFE074B094AC3E900459C602260A2F107
:102AE0001022203DA2F1EF126560E261DC6038BD8A
:102AF00028290020B5290000C128000055AA00FFA0
:102B00000020704770470000014B1B68184700BF4A
:102B1000341E0020024B1860024B002019607047E1
:102B2000381E0020341E002010B50446406A10B143
:102B3000A16A00F079F9606AFFF7E6FF0020C4E9B6
:102B4000090010BD38B50446FFF7EEFF236A2C22BA
:102B5000012B0CBF05466FF0960500212046FFF7BC
:102B600002FE284638BD0000054B0A461978C90701
:102B700003D50146181D00F05CB86FF0880070475F
:102B80003C29002010B5074C00F038F8204600F032
:102B900061F8201F082100F047F9BDE8104000F05F
:102BA00045B800BF4029002038B50D4D2B78DB0714
:102BB00010D4281D00F03BF8044670B900F012F85C
:102BC000044650B900F030F8044630B92B7843F091
:102BD00001032B700024204638BDFFF7D3FFFAE72E
:102BE0003C290020044A002092F8803543F001037C
:102BF00082F88035704700BF44290020F8B5094CA1
:102C000020252646012720462762FFF79BFF013D2E
:102C100004F12C04F7D196F8803565F3000386F8AB
:102C20008035F8BD44290020FDF710BD7047002015
:102C3000704713B5002001AB144600F0C9F830B955
:102C4000019BA34218BF6FF0930002B010BD6FF05C
:102C50009200FAE70020704770B504463AB141EAA5
:102C6000040313F003030CD1D518032D0FD822F061
:102C700003031C441944002302F0030293420CD1C5
:102C800070BD11F8013B013A04F8013BE6E7CD1AAB
:102C90002E68E51A2E60043BE6E75D5CE5540133DF
:102CA000ECE700002DE9F04F01251F4B8DB0D3F864
:102CB0000090D9F80820D9F800309540013D1BB1AB
:102CC000984708B1FFF7B4FD4FF0010A4FF00041FB
:102CD0002846FFF781FD0026044609F10C07002C69
:102CE000F4D0D9F80830B34202D8FFF7A1FDEDE7E0
:102CF0000AFA06F814EA080F12D03B680BB9FFF77E
:102D000097FD01A94046FFF76FFD3B6801A8DDF87C
:102D100008B0984701465846FFF782FD24EA0804A8
:102D200001360437DBE700BF000C002010B50C4C67
:102D3000236813B10B4B1B682BB900F07DFD30B934
:102D40000122084B1A6001232360002010BD0138C6
:102D5000072801D9044810BD044B53F8200010BDCA
:102D6000CC2E0020C82E0020FE8FFFFF3859000017
:102D7000144B2DE9F043002814BF04461C46124FA3
:102D8000236883B0BB4219D016460D4620464FF447
:102D9000E07104F1040900F047F804F58E78484624
:102DA00000F02AFC404600F04DFA2B464A464046C9
:102DB0000649009600F05CFA08B92760002003B0CD
:102DC000BDE8F083D02E0020A5BCC95A7D36000096
:102DD00070B50D4C1D46002814BF064626460B4B09
:102DE000306882B098420DD106F58E7000263346C9
:102DF0000096144600F08CFA002818BF34462C6068
:102E000002B070BD0248FBE7D02E0020A5BCC95A15
:102E1000E88FFFFF38B131B1002201440346013091
:102E200081421A70FAD1704738B131B100220144A1
:102E30000346013088421A70FAD170472DE9F04FED
:102E4000B2F5C07FBDB000F2DA800C46DFF8B49175
:102E5000154600214FF4D07282460DF17C08484699
:102E6000FFF781FC404601F0F7F9302321460024AA
:102E700009F118062A4689F8173030466BBAA9F8C6
:102E80001230A9F81040FFF7E7FE80222346725562
:102E90000DF12B0101F8013F0133202BFAD14FF442
:102EA000807240460BA901F0EDF98346002840F0FE
:102EB000A38005F1190313AD2F4607AE0293CDF899
:102EC0000CA001960495102200210198FFF74BFCFD
:102ED000DFF834A1DDF808B005970A9B5AF8044CD6
:102EE000089F099A07995AF8100C5AF80C6C5AF86E
:102EF000085C5C40019B7E40554081EA00071A4611
:102F000001214046CDE90776CDE9095401F0DCF90D
:102F1000BBF1100F94BFABEB0B0BABF1100B0AF135
:102F2000100A002847D1BBF1000FD6D1059F10220F
:102F300038460199FFF790FE99F8033010370133B6
:102F4000474589F80330BED1049D4FF4807229466D
:102F50004046DDF80CA0019E01F094F9834678BB51
:102F600054460AF130071BAB1A460121404601F0D6
:102F7000ABF9834620BB102220461BA91444FFF75F
:102F80006BFEA742EFD1404601F076F94FF4D071C5
:102F90001C48FFF749FF28463021FFF745FF0BA8E3
:102FA0002021FFF741FF30461021FFF73DFF584633
:102FB0003DB0BDE8F08F8346DDF80CA0019E049D76
:102FC000404601F059F94FF4D0710E48FFF72CFF3D
:102FD00028463021FFF728FF20210BA8FFF724FF08
:102FE00010213046FFF720FF30215046FFF71CFF2D
:102FF00058463DB0BDE8F08F13AD07AEE0E76FF087
:10300000370BF5E790300020A03000202DE9F0418B
:103010008CB004460D463022002168466F46FFF70B
:10302000A2FB04F12006E27B0132D2B2E273002A55
:103030004DD1A27B0132D2B2A273002A47D1637B69
:103040000133DBB26373002B41D1237B0133DBB24D
:103050002373002B3BD1E37A0133DBB2E372002B05
:1030600035D1A37A0133DBB2A372002B2FD1637A5F
:103070000133DBB2637253BB237A0133DBB22372B9
:103080002BBBE3790133DBB2E37103BBA3790133DB
:10309000DBB2A371DBB963790133DBB26371B3B91E
:1030A00023790133DBB223718BB9E3780133DBB2CF
:1030B000E37063B9A3780133DBB2A3703BB96378E3
:1030C0000133DBB2637013B92378013323703B46BD
:1030D00022460121304601F0F7F88046002841D110
:1030E00010370CAB9F429ED1029AAB6803995340B4
:1030F00002933046EE68D5F820804E40039604993E
:103100002E69D5F828C04E4004966E6905990B9F2C
:103110004E4005960699AE69009B4E400696EE69B4
:1031200007994FF480724E400796089ED5F824E028
:1031300088EA0608099E8EEA060E0A9E8CEA0601B7
:10314000EE6A7E402F687B4000936B68019D6B4068
:103150000193CDE9088ECDE90A16694601F092F88F
:10316000804638B168463021FFF75EFE40460CB01D
:10317000BDE8F0811022204608A9FFF76DFDF1E7B8
:103180002DE9F8431D468369B3F5C07F52D8164632
:10319000C3F5C072AA424DD3C5F5C072D31AB3426B
:1031A00048D30446DFF898904FF4C0720F46484663
:1031B0000021FFF7D8FA4946D4F89430A269D4F830
:1031C00098009847002838D1D4F818803DB1D4E948
:1031D00025302A4609EB0801984770BBA84407B17F
:1031E000C6B9174942460846FFF728FE054638B1DA
:1031F0004FF4C0711248FFF717FE2846BDE8F88368
:1032000020460F49FFF702FF05460028F0D10123B1
:103210002361EDE73946324609EB0800FFF71CFD54
:103220000749B04442460846FFF708FE0546002815
:10323000DED1E5E76FF03705DFE76FF03305DCE758
:103240003032002010B5A42200210446FFF78BFA8B
:103250004FF0FF314FF6F072044B2161E26104F14F
:103260009C001B68BDE81040184700BF5C1E002092
:103270002DE9F047054688B00F461646002120226A
:1032800068469846FFF76FFA1F4B05F19C094846C0
:103290001B689847044618B1204608B0BDE8F0877F
:1032A00005F1200A504600F0D7FFAA69C5E9257646
:1032B000F2B920232E69AB61002E22DB694650460D
:1032C0004FF4807200F0DEFF044630B933464146C9
:1032D0002846109AFFF754FF04460C4B48461B68DB
:1032E0009847002818BF0446204608B0BDE8F0877C
:1032F0002E69002EE2DA2F2A96BF013226465608A2
:10330000DCE71026DAE700BF581E0020541E00201C
:103310002DE9F04FB2F5806F91B01A9F00F2E38073
:10332000B7F5807F00F2DC80044615460E46302259
:10333000002104A89846FFF716FA6C4B04F19C098B
:1033400048461B6898478346002840F092802269CF
:10335000E3699A4200F391806369002B40F08D800D
:10336000002F40F0A980DFF888A16F46002D00F003
:1033700098806F4604F120080EE0102DAB4628BF60
:103380004FF0100B304639465A46FFF765FCB5EB57
:103390000B055E4400F08580E37B0133DBB2E37311
:1033A000002B4DD1A37B0133DBB2A373002B47D19C
:1033B000637B0133DBB26373002B41D1237B013389
:1033C000DBB22373002B3BD1E37A0133DBB2E37230
:1033D000002B35D1A37A0133DBB2A372002B2FD19E
:1033E000637A0133DBB2637253BB237A0133DBB2FE
:1033F00023722BBBE3790133DBB2E37103BBA37907
:103400000133DBB2A371DBB963790133DBB26371E2
:10341000B3B923790133DBB223718BB9E37801337C
:10342000DBB2E37063B9A3780133DBB2A3703BB9BD
:1034300063780133DBB2637013B9237801332370EF
:103440003B4622460121404600F03EFF83460028CD
:1034500093D0DAF80030484698470346302104A854
:10346000002B18BF9B46FFF7DFFC10213846FFF703
:10347000DBFC584611B0BDE8F08F3A4641460023C8
:103480002046FFF77DFEDFF868A000283FF46DAF0F
:103490004846DAF800309847834600283FF465AF85
:1034A000E7E7204604A9FFF7B1FD83460028D0D105
:1034B000236901332361CCE73A46414604A8FFF76C
:1034C000BDFC834618B16F46DFF824A0C1E7204653
:1034D00004A9FFF79BFD834600283FF444AFF2E7C1
:1034E0006FF0370BC5E76FF0350BC2E7581E0020B1
:1034F000541E00202DE9F043202B1D460646884629
:1035000091468BB026D8DBB202AF8DF80480B0466E
:1035100058F8041B8DF8053021B9404600F016FF1D
:10352000044640B9012302224046336001A900F05D
:1035300021FF044638B138462021FFF775FC2046AC
:103540000BB0BDE8F0832A464946404600F012FF22
:103550000446F0E702AF1946104600233A4601F050
:103560008FF804460028E6D12023B9461D46CCE753
:103570002DE9F041D0F8F830A6B0002BD8BF02AE4C
:1035800031DD05460027D0F80C4102AEA4F1010858
:103590009022D5F8FC403146D0F8000101AB0197EC
:1035A000B8FA88F8A0474FEA5818044620B9019B9A
:1035B00053B9B8F1000F16D030469021FFF734FC14
:1035C000204626B0BDE8F081014632462846FFF786
:1035D00091FF58B9D5F80431019A1344C5F8043164
:1035E000B8F1000FE8D16FF03C04E5E7044620464F
:1035F00026B0BDE8F08100BF70B500250446142256
:1036000004F588762946C0F8F850FC30FFF7ABF88F
:10361000082229463046FFF7A6F8144B30461B68AF
:103620009847204640F8045B00F076FE104B304689
:103630001B689847C8B9D4F8F830AB420FDC03EBED
:10364000830204EB82022021C2F800010120C2E9BA
:10365000421008490133C2F8FC10C4F8F830064B98
:103660003046BDE870401B68184770BD5C1E0020E6
:10367000581E002055410000541E00202DE9F0473F
:10368000202A88B07AD83F4B00F5887904461B6819
:1036900048461746884698470546F8B940F201164D
:1036A000D4F8F830002B65D02046FFF761FF0546BF
:1036B00038B9D4F8F830002B14DC013EF2D16FF0A9
:1036C0003B056E4620213046FFF7AEFB2E4B4846A9
:1036D0001B689847002818BF6FF01D05284608B0E2
:1036E000BDE8F087D4E94132934203D3D4F80C21EA
:1036F000012A02D0013ED7D1E1E71F2BFAD96E464D
:1037000001462022304604F1040AFFF72CF8314626
:10371000504600F059FE05460028D3D1504600F02F
:103720000FFE504600F0F8FD2946504600F00EFE10
:1037300005460028C6D150462022314600F01AFE28
:1037400005460028BED1034632462021304600F00F
:1037500097FF05460028B5D1D4F8F8303A46002B3B
:10376000C8BF002340463146C8BFC4F80431FFF744
:1037700073FAA7E76FF03F056E46A3E76FF03B05CE
:10378000ACE700BF581E0020541E0020002130B5B9
:103790008DB0282202A80191FEF7E5FF02A800F0F3
:1037A00097FF044610B120460DB030BD1B4D4FF0C1
:1037B000FF31286800F034F960BB194BD3F8340EA0
:1037C00010F0010017D100F05BF9F8B9154A02A911
:1037D00001A800F0B1FC0446012000F051F988B9BD
:1037E000286800F025F90028DDD00F4800F0AEF978
:1037F00020460DB030BD2868052400F019F90028D6
:10380000D1D0F2E7094800F0A1F9E9E7084800F053
:103810009DF9DBE7074800F099F9CEE7401E00204C
:1038200000608450B0330020B0590000905900006F
:10383000705900005859000030B583B000F036F8D8
:1038400078B900F055F890B9144BC3F80C0AFFF79B
:103850009DFF0446F8B9124D2B6863B1204603B0B2
:1038600030BD032400F072F8204603B030BD0424BC
:10387000204603B030BD02460146FFF779FA50B941
:103880006822084901ABFFF7A3FA20B92046064B8E
:103890002B6003B030BD0524E0E700BF005084502A
:1038A000D0350020D43500205AEA5A5A00207047FB
:1038B000430504D54FF0FF32034BC3F80821024BF8
:1038C000C3F8080A704700BF00508450014BC3F88A
:1038D000040A70470050845008B100F071B84FF4EA
:1038E0007500704708B100F04FB84FF4750070478D
:1038F00010B5114800F080F800B110BD0F4800F07D
:103900007BF80028F9D10E4C204600F075F800280D
:10391000F3D10C4B0C481C6000F06EF801460028F7
:10392000EBD100F02DF8044608B1204610BD00F0A0
:1039300089F82046FAE700BF501E00204C1E0020E8
:10394000481E0020401E0020441E002008B50848E4
:1039500000F05CF8074800F059F8074800F056F806
:10396000064800F053F8BDE8084000F00BB800BF6F
:10397000501E00204C1E0020481E0020441E002027
:1039800000207047704700BF10B402460B4C01E0A6
:10399000134207D1D4F8003A13F48070F8D0012014
:1039A00042F4807229B1054BD3F804410C60C3F88E
:1039B0000841024BC3F8082A10BC704700508450DD
:1039C0000246084901E01A4207D1D1F8003A13F43F
:1039D0008070F8D0012042F48072024BC3F8082AAC
:1039E000704700BF0050845001F058BFFEF7BBBEC7
:1039F0000A460021FEF7B7BE08B5034B02681B68F4
:103A000010689847002008BD7C1E002008B5034BB5
:103A100002685B6810689847002008BD7C1E002083
:103A2000024B02689B681068184700BF7C1E00208C
:103A300008B5034B0268DB6810689847002008BD92
:103A40007C1E002070B5094C094D2069AB68984771
:103A500018B1084B08485B6898470021074AEB6893
:103A600011602069BDE87040184700BF681E002043
:103A70007C1E0020601E0020C85900003C3600203B
:103A8000F8B51A4D1A4E0446B26828699047E8B94D
:103A9000184F3B684CB1A3B1012B19D0013B3B60DF
:103AA0002869F36898470020F8BD43B90121124AFC
:103AB000C2F800151149D1F81029002AFBD10133B1
:103AC0003B60F368286998470020F8BD0C48F8BDB2
:103AD0000A4AD2F81039002BFBD1074A6FF07E401A
:103AE000C2F80035FFF7F2FE3B68D7E7681E0020FA
:103AF0007C1E00203C360020004084500050845042
:103B0000E98FFFFF014B1B68184700BF7C1E002098
:103B1000014B9B68184700BF7C1E0020014BDB68EF
:103B2000184700BF7C1E0020BFF34F8F0549064B8E
:103B3000CA6802F4E0621343CB60BFF34F8F00BF4B
:103B4000FDE700BF00ED00E00400FA0530B44FF0DF
:103B5000FE3200250B4B0C4C0C494968C3F800247D
:103B6000C3F80424C3F80824C3F80C24C3F81024B1
:103B7000C3F81424C3F81824C3F81C24C4F800554F
:103B800030BC08470050845000408450601E002024
:103B900010B5044650B1636813F0685F05D0064A5B
:103BA000934202D000236260236010BD034B04489F
:103BB0005B689847EFE700BF2C5F5CA9601E0020A0
:103BC000E8590000C8B143680D4A934213D013F07E
:103BD000685F0ED0012350E8002F194640E8001C12
:103BE0009CF0000FF7D1012AF5D0BFF35F8F0020C2
:103BF000704704487047044870476FF4E0407047CE
:103C00002C5F5CA9E98FFFFFEA8FFFFF034680B1BD
:103C1000426809498A420AD012F0685F05D0BFF3B2
:103C20005F8F002210461A607047044870470448AE
:103C300070476FF4E04070472C5F5CA9E98FFFFF8D
:103C4000EA8FFFFF10B5044620B10023034A23602A
:103C5000626010BD0248FFF779FFF6E73A00003ACC
:103C6000105A00002DE9F041002873D00C460029BD
:103C700070D01D46002B6DD007461AB101220023DB
:103C80002A6003602B68002B5FD02946204600F095
:103C9000D9FD804600285AD12146286800F0B8FD99
:103CA0008046002853D12868082867D0042867D0A8
:103CB000A0F10200B0FA80F040090121314EC6F8AF
:103CC000C411C6F84011C6F8C411636AC6F8303191
:103CD000D6F830219342F6D10023C6F82C314FF0AC
:103CE000FF33C6F808316FF01B03C6F80031C6F881
:103CF0000C01D6F8040A40F48060FFF7E7FD0A23C0
:103D0000C6F83831069B012B29D023691E4AA2FB35
:103D100003231B09626A404602FB03F303EB4303E0
:103D2000184ADB039B09C2F8D8310123C2F82C31B1
:103D30003B682A6823F07F4343EA02633B602A68BA
:103D400043EA02233B60BDE8F081DFF84080404653
:103D5000BDE8F081DFF838804046BDE8F0814FF4DF
:103D60007F03D3F80C2C013206D0D3F80C3C064A62
:103D7000A2FB03231B09CDE71623CBE703209CE717
:103D800002209AE700508450ABAAAAAA310CF10095
:103D9000350CF10058B34B1EB3F5047F27D230B574
:103DA0004FF0000ECD00744671464B0901F01F0C18
:103DB00050F82330BCF11F0F23FA0CF306D003F0A8
:103DC000010319B901211C468E46EEE79C4201F120
:103DD000010106D01C464FF0010EA942E5D100209A
:103DE00030BD0EF1010E9645F7D1024830BD0148B5
:103DF000704700BF360CF100C0B32DE9F0434C1EF4
:103E0000B4F5047F1DD2E3B1DAB100252E46A846F1
:103E10002C46CF0003F1FF394FEA541C04F01F0E6B
:103E200050F82C10BEF11F0F21FA0EFC0CD00CF034
:103E3000010C4CB90126E04634463546ECE7964283
:103E400016D90C48BDE8F083AB420BD0C44508BF7F
:103E50000136A945F3D001350134BC42DCD1002044
:103E6000BDE8F0830125E0462E46F5E7014870479E
:103E70001D46F1E7370CF1002DE9F04F8FB0824677
:103E8000DDE919460D46002E6ED1096904911C60CA
:103E9000002318990B60002A00F02881994B6A6A68
:103EA000D3F83811D3F830319A4269D10A2967D151
:103EB0009AF80330069304F1080305930423049A47
:103EC0000393914B8F4CA3FB023B4FEA9B0B0BEBF5
:103ED0004B0BA2EB4B0B189B049E1E60002E00F0B8
:103EE000E580002700F0BEFC0797BAF1000F00F054
:103EF000D0804FF00109DDF81480002D00F0C9805A
:103F0000069B002B3ED0284606A900F09BFC00280B
:103F10003AD07E4B984220D0069B082B00F0E080E0
:103F200000225B000693294606AB50460092FFF73D
:103F300099FE774B984200F0CF8070B9DAF80020F4
:103F4000130A03F47F03134323F07F43CAF80030BE
:103F5000039B013B0393BED10020039000F082FC41
:103F600003980FB0BDE8F08F4FF47F01D1F80C0C2F
:103F700001300CBF4FF40471D1F80C1C049186E79A
:103F80006448EAE76248C4E72946069800F040FC26
:103F90000028BED1069B082B00F0A480042B00F063
:103FA000A380A3F10203B3FA83F35B09C4F8C491BD
:103FB000C4F84091C4F8C4916A6AC4F83021D4F8B6
:103FC00030118A42F6D10022C4F82C214FF0FF3282
:103FD000C4F808216FF01B02C4F80021C4F80C31AA
:103FE000D4F8040A40F48060FFF770FC0A23C4F898
:103FF00038312B69444AA2FB0313696A1B0901FB90
:1040000003F303EB4303DB039B09C4F8D831C4F883
:104010002C910698DAF8003023F07F41030243EA3E
:1040200000630B43CAF8003007A800F0E1FB079BD0
:10403000354A03F01A0303437FF46EAFA2FB063246
:10404000D4F81431B7EB920F0893D4F818310993D0
:10405000D4F81C310A93D4F820310B93D4F82431CE
:104060000C93D4F828310D9302D1BBF1000F12D17B
:104070004046182208A9183EFFF7B6FC08F11808B8
:1040800001379EB100F0EEFB00230793002D7FF473
:1040900037AF21483DE740465A4608A9A6EB0B0634
:1040A000FFF7A2FCD8440137002EEBD1049F059EF8
:1040B0006A6939463046FFF76DFEAA6940B94FF488
:1040C000806339463046FFF797FE00283FF444AF3F
:1040D0000023189A13601CE72B6A002B3FF43DAFB6
:1040E0000E483AE7032361E702235FE701222946EE
:1040F0005046009606ABFFF7B5FD00283FF4DBAE57
:104100002BE700BF00508450ABAAAAAA020CF10012
:10411000310CF100300CF100350CF100320CF100E3
:1041200010B4DDE9013401940024DDF80CC0CDE9C0
:1041300002C410BCFFF7A0BE30B51546012487B0FD
:1041400005AB00930022CDE9015404ABFFF794FEC8
:1041500007B030BDF0B587B0002967D01E46002BF0
:1041600064D01446002A61D0324F0D4638684FF0B3
:10417000FF31FFF755FC00283DD12F4BD3F8340E0B
:1041800010F0010015D04FF0FF354FF408712B48A7
:10419000FEF740FE04212A48FEF73CFE294828216C
:1041A000FEF738FE3868FFF743FC40BB284607B0EF
:1041B000F0BDFFF765FC002834D1224800F088FAF2
:1041C00070B91E4A0346029205AA019204AA0390FE
:1041D00000921C4902461A48FFF7A2FF0346A0B10D
:1041E0004FF0FF350120FFF74BFC0028CDD01648DB
:1041F000FFF7ACFCC9E71548FFF7A8FCBDE714487A
:10420000FFF7A4FC284607B0F0BD28461D46059BD5
:1042100022469C4228BF1A46049932600831FFF7B3
:10422000E3FBDFE70B48FFF791FCC6E74FF0FF35F4
:10423000BCE700BF401E0020006084507C36002098
:104240005036002054360020905900005859000084
:10425000345A00007059000010B5044630B10022F5
:1042600001236265A265E365236610BD0148FFF77F
:104270006DFCF4E74C5A000018B174220021FFF7DE
:10428000B5BB7047C8B1D9B108B50023C02A836354
:1042900080F83C300FD0B2F5807F04D0802A03D064
:1042A0006FF01F0008BD02230363D2081030FFF730
:1042B0009BFB002008BD0123F6E76FF0210070474B
:1042C0006FF01F00704700BF70B5044686B0F8B1AC
:1042D0001046EAB1E3B101291AD8A26B16D0012A1F
:1042E00016D1102500210DEB0506019602AA616387
:1042F0002946009500F0C8FA50B92B4632462046B0
:1043000002A900F073FD18B906B070BD002AE8D00C
:104310006FF02100F8E700BF10B5044628B1204631
:10432000BDE81040F421FFF763BB0448FFF70EFC23
:104330002046BDE81040F421FFF75ABB605A000048
:1043400010B1F421FEF766BD704700BF08B521B17A
:10435000012908D06FF0360008BD012100F058F89F
:104360000028F7D108BD022100F052F80028F9D04A
:10437000F0E700BF30B505468818B0F5801F0B4642
:104380001446A1B001D8802A0CD9B3F5801F17D9E3
:1043900022461946284600F07DF8044684B9204696
:1043A00021B030BD6846FFF71FFB2246694628460C
:1043B00000F070F8802104466846FFF719FBEDE72E
:1043C0006FF03604EBE700BF70B5E8B10E46D9B127
:1043D000044600F031F80546B0B92368012B0BD034
:1043E000022B01D0284670BD1C22304604F1080182
:1043F000FFF7FAFA284670BD2022304604F1080182
:10440000FFF7F2FA284670BD6FF03605EAE700BF05
:1044100078B138B50D46F0210446FFF7E9FA40239C
:1044200020462560E36500F061FA003818BF0120DE
:1044300038BD0120704700BFF0B5056EA5B0044639
:1044400004AEE5B900230127019330466760294691
:1044500002AA009300F018FA10B1012025B0F0BDB7
:104460002A46204602A900F069FA0028F5D1204624
:1044700000F06CFB0028F0D1206625B0F0BD802D47
:104480002A46304628BF802204F16401FFF7ACFAC7
:10449000256ED7E7002800F0AE802DE9F04F1446D6
:1044A000A5B0002A3DD00F46002949D0B2F5803F83
:1044B0000546006E20D34FF6FF7805F1640AEB6DD8
:1044C0001A1AB2FBF3F103FB1122002A65D18342D1
:1044D000B9464FF6FF7672D0B6FBF3FB03FB0BFB3E
:1044E000BBF1000F30D1002E45D1A4F57F44FF3C35
:1044F000B4F5803F4744E2D2EA6D161AB6FBF2F3F8
:1045000002FB1366A64228BF2646002E75D18242C2
:1045100000F08D80B4FBF2F602FB06F62EB9002CFB
:1045200079D1002025B0BDE8F08F00233146384610
:10453000CDE9003302AA00F0A7F9002800F0958029
:10454000012025B0BDE8F08F002359464846CDE94B
:10455000003302AA00F098F90028F1D15A46284603
:1045600002A900F0EBF90028EAD1A6EB0B06286EB1
:10457000D944002EB9D019304946324605EB8000A7
:10458000FFF732FAA4F57F44286EFF3C3044B4F5BF
:10459000803F4744286692D2AEE7424528BF424654
:1045A000164639465044FFF71FFA286EEB6D30442B
:1045B000834207EB06092866A8EB06068CD1802B00
:1045C00028BF802351461A4604A8FFF70DFA00239E
:1045D000E96D02AACDE9003304A800F055F90028DE
:1045E000AED12846EA6D02A900F0A8F90028A7D1AB
:1045F000EB6D286670E70120704705F164033946CA
:1046000032461844FFF7F0F9286EEA6D3044A41BD7
:10461000374428667BE72B6E2246193305EB83006F
:104620003946FFF7E1F92B6E23442B6679E7802AA0
:1046300028BF802205F1640104A8FFF7D5F9002303
:10464000E96D04A8CDE9003302AA00F01DF90028A5
:104650007FF476AF2846EA6D02A900F06FF90028D2
:104660007FF46EAFEA6D286654E73246284602A909
:1046700000F064F900287FF463AF3744A41B4EE7D1
:10468000F8B51C460546114816460F46FFF744FE8E
:1046900021460E48FFF75AFE044620B10B48FFF7AB
:1046A0004FFE2046F8BD3A4629460848FFF762FE0D
:1046B00004460028F2D131460448FFF785FE04463F
:1046C0000248FFF73DFE2046F8BD00BF9C380020A1
:1046D0001C2370B582B001A90546019300F032F8A1
:1046E000044638B9019B1C2B07D0144C1C212846CA
:1046F000FFF77EF9204602B070BDD5E90112131E06
:1047000018BF0123003918BF0121012628689B002A
:10471000EA6843EA4103002818BF43F00103EE6151
:104720002AB9C5E90834002BE4D1054CDEE7204660
:1047300043F00803C5E9083402B070BD370CF0003F
:104740000E0CF000034618B111B10A681C2A01D002
:10475000012070474FF47F02D2F8101C01310CBFCA
:1047600040F2DC51D2F8101C4FF47F020160D2F805
:10477000141C01310CBF40F2DC51D2F8141C4FF470
:104780007F024160D2F8181C01310CBF40F63401A1
:10479000D2F8181C4FF47F028160D2F81C1C013142
:1047A0000CBF40F63401D2F81C1C4FF47F02C160EC
:1047B000D2F8001C01310CBF9021D2F8001C4FF43C
:1047C0007F020161D2F8041C01310CBF5121D2F8E3
:1047D000041C4FF47F024161D2F8081C0020013113
:1047E0000CBF40F23732D2F8082C9A61704700BFF4
:1047F000014608B54FF48060FFF774F80022034BC0
:10480000C3F8C821C3F82C2108BD00BF0050845054
:104810000138072805D8DFE800F0100E040A040468
:10482000040607487047CB6800204B6270478B68CE
:1048300000204B6270474B68F6E70B68F4E700BF57
:10484000310CF1000B6802E0082B0B6006D8026AFD
:1048500013424FEA4303F7D00020704700487047E7
:10486000310CF100002310B5064C4FF48060C4F801
:104870002C31C4F8C431FFF71BF84FF0FF33C4F8F4
:10488000083110BD005084502DE9F041002482B061
:1048900015461E4601220DF107030746DDF8248068
:1048A0008DF8074000F05AFFD0B99DF80730044654
:1048B0002F602B71B8F1000F0ED04EB1024608994F
:1048C00030460DF1070300F049FF48B99DF8073065
:1048D000C8F8006088F80430204602B0BDE8F081D6
:1048E0004FF47504204602B0BDE8F081D8B108B598
:1048F0000368012B04D0022B0FD043B10B4808BD35
:1049000020220B490830FFF76FF8002008BD142261
:1049100008490830FFF768F8F7E720220649083011
:10492000FFF762F8F1E74FF4730070470100F300FE
:10493000705A0000B05A0000905A00002DE9F0476C
:10494000002900F0EB800446002800F0EB800368AB
:1049500088469146002B00F0B580013B012B00F208
:10496000C9804FF0FF3171484FF0020AFFF758F845
:10497000002840F0B1800020FFF782F807460028A9
:1049800040F0B4806A4DD5F81069002EFBD14FF08D
:10499000FF30FEF78DFFD5F8040A20F40060FEF723
:1049A00095FF01230722C5F81838C5F82038C5F847
:1049B0000029C5F8C437C5F8A466A36CC5F8CC3780
:1049C000E36CC5F8D037C5F8C0A723685BB1013BDD
:1049D000012B18D8636AC5F85C36236AC5F85836C7
:1049E000E369C5F85436A269514BC3F85026626991
:1049F000C3F84C262269C3F84826E268C3F8442667
:104A0000A268C3F84026B9F1000F56D063684FF48E
:104A10000060012B04BF464AC2F8843698F804307F
:104A2000D8F80010424A5B0003F00203C2F80C3BC6
:104A3000C2F8281CC2F82C9CFEF74EFF07462368DC
:104A400063B1013B012B19D8394BD3F85C26626264
:104A5000D3F858262262D3F85436E361344BD3F8A6
:104A60005026A261D3F84C266261D3F84826226111
:104A7000D3F84426E260D3F84036A3600022012137
:104A80002B4BD3F8CC07A064D3F8D007E064C3F86D
:104A9000C417C3F88426C3F8C827C3F81828C3F876
:104AA0002028AFBB0120FEF7EBFF68BB1F48FEF7D5
:104AB000BFFF18BB3846BDE8F08704221C4BC3F883
:104AC000C827BCE74FF0FF3118484FF0010AFEF746
:104AD000A7FF00283FF44FAF1648FFF737F8002034
:104AE000FEF7CEFF074600283FF44CAF1248FFF711
:104AF0002DF847E7114F3846BDE8F0871048FFF71B
:104B000025F83846BDE8F0870E48FFF71FF8CDE7D7
:104B1000102104F10800FEF76BFFC3E70A4F384687
:104B2000BDE8F0874FF47307C4E700BF501E0020B4
:104B30000050845058590000705900000100F300E3
:104B4000B0590000905900000300F300A0B30346E1
:104B500070B4D0E90240D3E9041226BA05BA0CBAFF
:104B600010BAC3E90440D3E90612986A09BAC3E946
:104B7000026512BA996100BAD3E9084125BA0CBAA4
:104B8000C3E90725D3E90B12C3E9094009BAD86B79
:104B900012BAD962D3E90D4125BAC3E90C250CBA82
:104BA00000BAD3E9101209BA12BAC3E90E40196467
:104BB00000205A6470BC70474FF47300704700BF08
:104BC00070B500284DD0436B0446032B3CDD063BFB
:104BD000012B3BD8A36B012B3BD8E36D012B3DD8B8
:104BE000236E012B41D8224ED6F81059002DFBD14F
:104BF0004FF0FF30FEF75CFED6F8040A20F40060A8
:104C0000FEF764FE0123C6F80039C6F8BC54636B96
:104C100023F00402032A18BFA16B226B0CBF2946A4
:104C200001F00101022A17D89B0003F01C0343EA9C
:104C300002330F4A0B43C2F8C034636B072B06D113
:104C40000123C2F87C3402E0002BC3DA094D284668
:104C500070BD094D284670BD084DF8E7084D28463F
:104C600070BD4FF47105284670BD064DEFE700BFDB
:104C7000005084500100F1000200F1000600F10034
:104C80000300F1000400F10000287DD038B590F851
:104C90003C300446002B55D0022B23D03C483D4DE0
:104CA0002A683D4B1268C3F800242A685268C3F88A
:104CB00004242A689268C3F808242A68D268C3F8D2
:104CC0000C242A681269C3F810242A685269C3F8B0
:104CD00014242A689269C3F818242A68D269C3F890
:104CE0001C2438BD016B006C00F032FB294D0028FC
:104CF000D6D12A68284B1268C3F800242A68526863
:104D0000C3F804242A689268C3F808242A68D26881
:104D1000C3F80C242A681269C3F810242A6852695F
:104D2000C3F814242A689269C3F818242A68D2693F
:104D3000C3F81C24216B206C00F020FB0028AFD1AD
:104D4000002038BD0269144BC3F800244269C3F83F
:104D500004248269C3F80824C269C3F80C24026BD6
:104D6000013A012AECD8026AC3F81024426AC3F857
:104D70001424026B022AE3D1826AC3F81824C26A9F
:104D80000020C3F81C24DCE74FF47100704700BF1B
:104D90000900F1003C1E002000508450114A124BC3
:104DA00011680968C3F8001411684968C3F804144D
:104DB00011688968C3F808141168C968C3F80C142D
:104DC00011680969C3F8101411684969C3F814140B
:104DD00011688969C3F818141268D269C3F81C24D1
:104DE000704700BF3C1E0020005084502DE9F04F5A
:104DF00085B0002958D01746002A55D0044600280F
:104E000000F0DC809846C36D0E46002B42D1B8F509
:104E1000805F44D294F83C30042B00F0C7804FF000
:104E2000000A4FF0FF31B548FEF7FAFD002840F0C8
:104E3000B9800020FEF724FE002840F0AF804FF03C
:104E40000109DFF8BCB22046CBF81098CBF82098C7
:104E5000FFF7B6FE054620B92046FFF715FF0546C9
:104E600038B3BAF1000F40F085800022A44B012036
:104E7000C3F81028C3F82028FEF702FE002840F0EF
:104E800089809E48FEF7D4FD00287CD1284605B0D5
:104E9000BDE8F08F012BBDD1B8F5803FBAD3994D55
:104EA000284605B0BDE8F08F974D284605B0BDE80F
:104EB000F08F636B072B00F2CA8009FA03F919F02F
:104EC0008A0F40F0D38019F0440F40F0C28019F0EF
:104ED000010F00F0BC8033793A795B0002F00102E7
:104EE00003F002031343864A31683868C2F80C3B6A
:104EF000636B23F00403032B0AD0236E012B0BBF3B
:104F0000C2F8280DC2F8300DC2F82C8DC2F8348DCD
:104F1000E36D4FF40060012B794B0BBFC3F8281CE5
:104F2000C3F8301CC3F82C8CC3F8348CFEF7D4FCC7
:104F30000546002895D1626B072A15D801239340B6
:104F400013F08A0F40F09F8013F0440F0CD06C4B8D
:104F5000D3F860242260D3F864246260D3F8682414
:104F6000A260D3F86C34E3600123A365BAF1000FAB
:104F70003FF47BAF0423202104F1100084F83C307F
:104F8000FEF736FD71E76148FEF7E0FD284605B003
:104F9000BDE8F08F5E48FEF7D9FD72E75D48FEF789
:104FA000D5FD4CE75C48FEF7D1FD42E7216B206C54
:104FB00000F0B8F928B14FF0010A32E74FF471055B
:104FC00064E7DFF858914E4DD9F800301B68C5F8FA
:104FD0000034D9F800305B68C5F80434D9F80030E3
:104FE0009B68C5F80834D9F80030DB68C5F80C3484
:104FF000D9F800301B69C5F81034D9F800305B6966
:10500000C5F81434D9F800309B69C5F81834D9F8BC
:105010000030DB69C5F81C34216B0229CBD8236D25
:105020004FEAC10A0193E36C0AF1100A04F1100B74
:105030000093CDF80CA0CDF808B0206CD4E9112372
:1050400000F09CFA68BB002384F83C30B3E7344D91
:1050500007E72368CBF860346368CBF86434A3684F
:10506000CBF86834E368CBF86C3434E72368CBF8CA
:1050700040346368CBF84434A368CBF84834E36821
:10508000CBF84C3427E71E4BD3F840242260D3F8EA
:1050900044246260D3F84824A260D3F84C34E3601F
:1050A00062E7D9F8003051461B685846C5F800340D
:1050B000D9F800305B68C5F80434D9F800309B6833
:1050C000C5F80834D9F80030DB68C5F80C34D9F8D5
:1050D00000301B69C5F81034D9F800305B69C5F899
:1050E0001434D9F800309B69C5F81834D9F8003069
:1050F000DB69C5F81C34FEF77BFCA4E7501E0020DA
:10510000005084500500F1000B00F100B059000080
:105110009059000070590000585900003C1E0020B2
:105120000100F1002DE9F04701B3FAB1044600286F
:1051300054D01D46436B0E46072B1BD05DB9032B85
:1051400010D1836D73B945668566C5660567102500
:1051500000F164030B602B4631462046BDE8F04762
:10516000FFF744BE2F463846BDE8F087644F384607
:10517000BDE8F087C36DA3BBB5F5805F36D20DB92E
:10518000A36D9BBB4FF0FF315E48FEF749FC002842
:105190004CD10020FEF774FC002843D14FF00108E9
:1051A000DFF864912046C9F81088C9F82088FFF715
:1051B00007FD0746E0B10022534B0120C3F8102839
:1051C000C3F82028FEF75CFC40BB4E48FEF730FCDD
:1051D0000028C8D04D48FEF7B9FCC4E74FF471076A
:1051E000C1E7012BCBD1B5F5803FC8D3484FBAE713
:1051F0002046FFF749FD07460028DCD1636B072BEB
:105200000AD808FA03F818F08A0F13D118F0440FDF
:105210005AD118F0010F19D13E4FCCE73E48FEF7A6
:1052200095FCD2E73D48FEF791FCB7E73C48FEF716
:105230008DFCAEE72368C9F840346368C9F844348C
:10524000A368C9F84834E368C9F84C3401212E4AF0
:10525000C2F87C14C2F8BC54337930688B4003F038
:105260000203C2F80C3BE5B9A36D0BB9C2F82415D3
:10527000626B072A9FD80123934013F08A0F30D125
:1052800013F0440F97D0204BD3F860242260D3F85A
:1052900064246260D3F86824A260D3F86C34E360BD
:1052A00089E7E36D012B0BBFC2F8280CC2F8300C64
:1052B000C2F82C5CC2F8345C4FF40060FEF70CFBC3
:1052C0000028D5D0074676E72368C9F860346368BC
:1052D000C9F86434A368C9F86834E368C9F86C3461
:1052E000B4E7094BD3F840242260D3F84424626029
:1052F000D3F84824A260D3F84C34E3605BE700BFE6
:105300000B00F100501E002000508450B0590000E6
:105310000500F1000100F1009059000070590000F3
:10532000585900007F2809D851B10139022909D8FC
:1053300005497F280CBF0846002070470248704787
:1053400008467047014870470100F7000300F70066
:105350007F2809D851B10139022909D805497F2888
:105360000CBF084600207047024870470846704747
:10537000014870470100F7000300F7000129F0B46D
:1053800007D0022900F0898000295AD07248F0BC69
:1053900070470022714C724B4FEAC00CC4F80015E4
:1053A000451C0CF57F04C3F8082104F50444C3F838
:1053B0000021C3F80421C3F800556A4E2468B442A2
:1053C00040F0B380196002E0002940F0B580D3F8C6
:1053D0000021D3F80841D3F804112243F4D0002C63
:1053E00040F0B180002940F0A78001245B4AC3F857
:1053F00000150230C2F800455B4AC3F80811C3F833
:105400000011C3F80411C3F8000552F80C00574A04
:10541000904240F08E80524A1C6002E0002840F02A
:105420008B80D2F80031D2F80811D2F804010B4376
:10543000F4D0002940F08C8000287DD1C2F800050E
:1054400028E00124464BC200444E204402F57F026E
:10545000C6F8004502F50442C3F80811C3F800116C
:10546000C3F80411C3F800053E4D1268AA4260D18A
:105470001C6001E000285FD1D3F80021D3F80811A7
:10548000D3F804010A43F5D000295CD1002853D198
:10549000C3F800050020F0BC704701250022304B06
:1054A0002E4F4FEAC00C44190CF57F01C7F8005588
:1054B00001F50441C3F80821C3F80021C3F8042111
:1054C000C3F80045274E0968B1422ED11D6000E0A7
:1054D00091BBD3F80021D3F80841D3F8041122433B
:1054E000F6D084BB41BB01241C4AC3F8001502302E
:1054F000C2F800451C4AC3F80811C3F80011C3F8EC
:105500000411C3F8000552F80C00184A904210D15B
:10551000134A1C6000E078B9D2F80031D2F80811C3
:10552000D2F804010B43F6D083E7C3F800251048F6
:105530002DE7C3F80015FAE70022094B0D48C3F820
:105540000025F0BC70470022C3F800250A481EE77A
:105550000023C2F80035F9E70C00F1000040845048
:1055600000900350005484500884FF00105484506D
:105570000600F7000200F7000100F7002DE9F047F0
:105580000024CCB0824689461646214674220EA8D5
:105590001F46579DDDF85881FDF7E5F8802221462A
:1055A0002CA82B94FDF7DFF88423B5F57F6FCDE9A8
:1055B0000A440D940C94059364D8FFF7EFFB05ABF8
:1055C00030462BAE01933946DDE95423029500960F
:1055D00000F064F8002850D1022307228DF8133020
:1055E0009DF813301B928DF87430002201230124A2
:1055F00010211C900EA8CDE92423CDF86890CDF899
:1056000078A02694FEF7F4F910220DF120090092FB
:10561000304605990AABCDF8049006AAFFF734F995
:10562000074688B11EE0102D2E4628BF10260EA971
:105630003246FEF7D9F910210EA8FEF7D9F9013448
:10564000AD1B3744E4B222D0059B4A4606A90EA8FA
:105650008DF8AC40FFF766FD034608EB0700002B12
:10566000E1D01F460EA874220021FEF7BFF9FFF714
:1056700095FB38464CB0BDE8F087064F38464CB035
:10568000BDE8F087044F38464CB0BDE8F0872F46A0
:10569000E8E700BF0E00F1000F00F1002DE9F04136
:1056A000002482B00A9D0194B5F57F6F40D8ED00CB
:1056B000B5F5807F1E4634BF0323042301F1FF3C70
:1056C000BCF13F0F0C46009332D888B3174666BB37
:1056D000089A6AB3099A116851B3A21913449942FE
:1056E00026D3089B01462246581CFEF77DF9089BED
:1056F00004F102081C440023637026BB089BFF2DA5
:10570000009503EB080017D92B029BB243EA15233F
:10571000022201A90193FEF767F908F102030020B4
:10572000099A136002B0BDE8F0810AB1402ECFD9CA
:10573000094802B0BDE8F08101226946FEF754F93C
:1057400008F10103EBE7089B324603EB08003946FA
:10575000FEF74AF9B044D1E7060000800020187037
:10576000704700BF431810B501D21F2A01D900208D
:1057700010BD013902F014030144102B80EA01042A
:105780003CD009DC8BB1042BF1D11F2C40E840F355
:1057900015D941E840F10EE0142BE8D11F2C40E868
:1057A000C0F30CD941E8C0F105E01F2C40E800F33C
:1057B00005D941E800F11C460B468C42D7D122F0B6
:1057C0001402013A0A2AD2D801A151F822F000BFEE
:1057D0001F580000195800000B5800006F570000B8
:1057E0006F5700006F5700006F57000025580000EA
:1057F0001F580000135800000B5800001F2C40E8F1
:1058000080F3DCD941E880F1D5E713F4001FAFD174
:10581000ADE713F4801FFAE75B02A9D5A7E713F4FD
:10582000002FF4E713F4802FF1E700BF08B5074B12
:10583000044613B10021AFF30080054B1868836A5A
:1058400003B19847204600F043F800BF0000000075
:10585000C45A000070B50D4D00260D4C641BA410F9
:10586000A64209D10B4D00260B4C00F033F8641B07
:10587000A410A64205D170BD55F8043B01369847E7
:10588000EEE755F8043B01369847F2E70C1F00207D
:105890000C1F00200C1F0020101F0020884210B594
:1058A00001EB020402D98442234607D8431EA142D9
:1058B00008D011F8012B03F8012FF8E70244014644
:1058C0008A4200D110BD13F8014D02F8014DF7E7EF
:1058D000FEE700BFF8B500BFF8BC08BC9E467047A5
:1058E000F8B500BFF8BC08BC9E46704754464D5FF3
:1058F00043525950544F0054464D5F504C4154460A
:105900004F524D5F5345525649434500F15A0000EE
:10591000E95A0000E15A0000F95A0000015B00005A
:10592000095B0000115B0000195B0000215B0000B7
:10593000295B0000315B0000FF8FFFFFFF8FFFFF3F
:10594000FE8FFFFFFE8FFFFFFD8FFFFFFC8FFFFF2E
:10595000FC8FFFFFFB8FFFFF4661696C20746F2097
:1059600061637175697265206D757465780A0000F0
:105970004661696C20746F20696E6372656173653E
:1059800020504D20636F756E7465720A0000000030
:105990004661696C20746F2064656372656173652C
:1059A00020504D20636F756E7465720A0000000010
:1059B0004661696C20746F2072656C656173652047
:1059C0006D757465780A0000436F756C64206E6FA6
:1059D00074206C6F636B20706F77657220736176D3
:1059E00065206D75746578006D757465785F667295
:1059F00065652063616C6C65642077697468204E0E
:105A0000554C4C20706172616D65746572000000C8
:105A100043616E277420696E697469616C697A6587
:105A2000206D757465782C20776173204E554C4C31
:105A30000D0A00004661696C20746F20756E6C6FF2
:105A4000636B206D757465780A00000063747820BC
:105A500063616E6E6F74206265204E554C4C000081
:105A60000A637478206973204E554C4C0A0000007C
:105A700067E6096A85AE67BB72F36E3C3AF54FA5DF
:105A80007F520E518C68059BABD9831F19CDE05B0B
:105A9000D89E05C107D57C3617DD703039590EF711
:105AA000310BC0FF11155868A78FF964A44FFABED7
:105AB0000123456789ABCDEFFEDCBA9876543210EE
:105AC000F0E1D2C3AC1E0020000000000000000086
:105AD00000000000000000000000000000000000C6
:105AE0001FB51748694627E01FB51648694623E0E9
