:1080000068B50020FDAF000071340100D1AF000061
:10801000D1AF0000D1AF0000D1AF0000D1AF000060
:1080200000000000000000000000000095A8000013
:10803000D1AF00000000000025A80000D1AF000073
:1080400029A9000029A9000029A9000029A90000E8
:1080500029A9000029A9000029A9000029A90000D8
:1080600029A9000029A9000029A9000029A90000C8
:1080700029A9000029A9000029A9000029A90000B8
:1080800029A9000029A9000029A9000029A90000A8
:1080900029A9000029A9000029A9000029A9000098
:1080A00029A9000029A9000029A9000029A9000088
:1080B00029A9000029A9000029A9000029A9000078
:1080C00029A9000029A9000029A9000029A9000068
:1080D00029A9000029A9000029A9000029A9000058
:1080E00029A9000029A9000029A9000029A9000048
:1080F00029A9000029A9000029A9000029A9000038
:1081000029A9000029A9000029A9000029A9000027
:1081100029A9000029A9000029A9000029A9000017
:1081200029A9000029A9000029A9000029A9000007
:1081300029A9000029A9000029A9000029A90000F7
:1081400029A9000029A9000029A9000029A90000E7
:0481500029A9000059
:1081540053B94AB9002908BF00281CBF4FF0FF31AA
:108164004FF0FF3000F00CB8ADF1080C6DE904CE0F
:1081740000F008F8DDF804E0DDE9022304B07047FC
:10818400704700BF2DE9F04786468C460846089E96
:10819400154674461946002B40F0C1808542B2FA58
:1081A40082F245D94AB1C2F1200300FA02FC95409B
:1081B40094402EFA03F343EA0C0C4FEA154EA8B28E
:1081C400230CBCFBFEF80EFB18CC08FB00F943EAB9
:1081D4000C43994528D9EB1808F1FF3704D2994587
:1081E40002D9A8F102072B44A3EB0903A4B2B3FB01
:1081F400FEFC0EFB1C330CFB00F044EA0344A042DB
:1082040014D92C190CF1FF3304D2A04202D9ACF1D9
:1082140002032C44241A43EA07401EB1D44000232D
:1082240034607360BDE8F0874746DDE76346F1E7F5
:1082340092BB431B01214FEA154EAFB2200CB3FB96
:10824400FEFC0EFB1C330CFB07F840EA0343984585
:1082540061D9EB180CF1FF3004D2984502D9ACF186
:1082640002002B44A3EB0803A4B2B3FBFEFC0EFBF9
:108274001C330CFB07F744EA0344A7424DD92C19DD
:108284000CF1FF3304D2A74202D9ACF102032C440F
:10829400E41B43EA0040C0E7C2F120039540944048
:1082A40020FA03F12EFA03F34FEA154E9040AFB2D1
:1082B4000343B1FBFEFC0EFB1C10190C0CFB07F86E
:1082C40041EA0041884522D969180CF1FF3004D2F3
:1082D400884502D9ACF102002944A1EB08019BB204
:1082E400B1FBFEFC0EFB1C110CFB07F743EA014338
:1082F4009F420ED9EB180CF1FF3104D29F4202D9F0
:10830400ACF102012B44DB1B41EA004193E76046D8
:10831400E3E76146F7E76046A4E76346B8E78342CC
:1083240006D916B9002108467CE7C6E900E0F9E75A
:10833400B3FA83F78FB9834201D3724508D8BEEBF1
:10834400020460EB030301209C461EB9002169E787
:108354003846FAE7C6E9004CF8E7C7F1200CBB4001
:108364000EFA07F522FA0CF42EFA0CF1BA401C436B
:1083740020FA0CF3B8404FEA144901431FFA84FE73
:10838400B3FBF9F809FB18300B0C08FB0EFA43EAAF
:1083940000439A4540D9E31808F1FF3004D29A45C6
:1083A40002D9A8F102002344A3EB0A0389B2B3FB68
:1083B400F9F809FB183308FB0EFE41EA03418E4528
:1083C4002CD9611808F1FF3304D28E4502D9A8F1E3
:1083D4000203214443EA0040A1EB0E01A0FB0298F2
:1083E4004145CE46434602D306D14D4504D2013819
:1083F400B9EB020E68EB0403002EA7D0B5EB0E0216
:1084040061EB030101FA0CFC22FA07F3F9404CEA90
:108414000303C6E9003199E74046C5E74346D9E777
:1084240010F8012B11F8013B012A28BF9A42F7D01A
:10843400D01A7047034611F8012B03F8012B002AC8
:10844400F9D17047034613F8012B002AFBD1181AFF
:10845400013870470140CB0709D5054A03215388E9
:108464000448013353800123034A04F0C5BB704719
:10847400A082002040580100385801002DE9F04145
:1084840088B06D4602AF4FF00208384BC7F8108031
:108494007B6100234FF48651354807F1100201F047
:1084A40095FC06F0D1FA78B188B002AA314BC2E942
:1084B4000530032342F8103F00234FF4C2512C48E7
:1084C40001F084FCAD4616E02B4806F0F7FA0446AA
:1084D40048B903F0FDFF064688B188B002AA274BCD
:1084E400C2E90530E5E70146254809F0A7FC214625
:1084F400244809F0A3FC1837BD46BDE8F081224B9F
:10850400C7E904834FF48651034607F11002184863
:1085140001F05CFC0123032200931C491C4B1D4801
:1085240004F09CFC044648B188B002AA1A4BC2E984
:108534000530032342F8103F3346BEE7174BC7E923
:1085440004834FF48651034607F11002084801F0F2
:108554003DFC013404F00101002006F041FB002140
:108564004FF4004008F046FEF3E700BFA05C0100B2
:10857400F4560100C15C010059840000185D01003B
:10858400DC5C0100FB5C0100385D01004058010027
:1085940038580100288100204F5D0100755D0100FD
:1085A4002DE9F04F91B0009302F004030293C2F35B
:1085B400C2030133840705460E46DDF86890039232
:1085C400059340F0BB81041D30B1072909D86FF031
:1085D4001B0011B0BDE8F08F01F00706341DC6F191
:1085E4000806009B4FF000084FF0040A591E4FF094
:1085F400FF3347460193C3465346CDF810800DB16F
:10860400009A22600598002800F3E8809848009AB0
:10861400824203D397488242C0F0E080039AA4EBDD
:10862400050E92074FEA9E0000F103810F2F00F21E
:10863400B180002D00F0058107F140020DEB020C22
:10864400019A0CF8200C0CF8102C049801300490BA
:10865400E7E07A285DD84B280ED8472859D829282E
:108664002DD8252852D054D820287AD02338D0F1B8
:10867400000B4BEB000B74E04C382E2849D8DFE894
:1086840000F07048484848484848484848484B48DB
:108694004848484848484859484B4B595959704BE1
:1086A4006D487048184B184848827F4B48484B48DF
:1086B4007F0000204FF0000B4FF0040A38E0012245
:1086C4002A38C0B202FA00F010EA0E0F49D110F0B5
:1086D400625C2FD110EA020B43D06046013C544443
:1086E400B4FBFAF40AFB04F4002D61D0A3EB050CEF
:1086F400A4446645FFF46BAF002868D1042B47D12E
:1087040059F8043B2360042304342AE0019A013A13
:1087140001924FF0000B24E011F8010C6C2834D1C5
:10872400002011F8023C83466C2BC5D14FF0080A97
:108734005346D3E709F1070929F00709073424F060
:108744000704F9E802AB35B106982044B0423FF67D
:108754003EAFC4E900AB4FF0000B08344FF0080AF9
:10876400534611F8010F002878D0BBF1000F7FF4B5
:1087740070AF2528F5D14FF0010B019B0133019314
:108784004FF0040AECE7584694E700208346A5E737
:10879400082B02D06FF015001BE709F1070929F037
:1087A4000709F9E80223C4E9002308230834D8E7B9
:1087B40068B9042B02D109F10409A4E7082BE9D113
:1087C40009F1070929F0070909F10809EDE7059AF4
:1087D400013A059259F8042B009210E7039A900786
:1087E40020D54FF0010CA4EB050E4FEA9E00BEF518
:1087F400007FCFD20F2FCDD8F5B107F140020DEB9A
:10880400020E019AC0B20EF8200C0EF8102CBCF126
:10881400000F3FF41AAF60F07F000EF8200C08F14F
:1088240001080137C5F108024FF6DA7E04340692D6
:1088340097E74FF0000CDAE7BCF1000F01D00136E6
:10884400EFE7029802360028EBD10098CDE9063113
:10885400FFF7F8FDDDE906310644E2E7631BB3F5F3
:10886400806F97D245B9A6F10804E018B1E600BFBD
:108874007C530100AC740100029A9B0828602B70A1
:108884009DF81030C2B1EB7085F80280B8F1000F8A
:1088940005D0002208A8C5F1010C97420ED14FF073
:1088A400000AC5F101030DF1200901930DF1300B0C
:1088B400574512D1601B8CE66B70E5E710F8013B5D
:1088C400190608D504EB0C0E764503F07F03FFF47C
:1088D4007EAE04F8013B0132DFE7B8F1000F03D0AC
:1088E40099F90020002A17DB029BD3B11AF80B2058
:1088F40004F8012B0022019B981820448642FFF4BF
:1089040066AE99F80000009904F8010B2046039222
:108914000CF00AFD039A14440AF1010A09F1010951
:10892400C6E799F8002055F822300093029B00987E
:1089340045F82230FFF786FD421CDCE76FF00D009E
:1089440047E600BF2DE9F04F95B000AFBB61BB6FA8
:108954000446C3F3C0038A4690F802B07A623B61CE
:1089640041B9457800780BEB80002044554517D871
:10897400A0EB040AE3787B61BBF1000F02D0BB6F6C
:10898400D80716D47B6953BB7B6A1BB1514620467A
:10899400BA699847554628465437BD46BDE8F08F16
:1089A400461C3046FFF74EFD013030440AF1010AFF
:1089B400DCE7237862683B629B00FB603B6AFA61F8
:1089C40004EB83097B6A002B40F0FF80C846002635
:1089D400554609EB0B0AD04551D1D94413E0BB6F7E
:1089E4009907D1D5237899463B629B00FB60636865
:1089F40004EB8909FB617B6A002B7AD15546BBF1F4
:108A0400000F4FD15E46BB6F13F0050F0CBF4FF044
:108A1400020B4FF0010B7B6909EB430ABB6F03F0B8
:108A240002037B62D145B6D019F8021B19F8013C48
:108A340054F82380AB4B984502D3AB4B984538D3BD
:108A44003B69002B42D0F86909F0CFF900283DD0EA
:108A5400E8468AB06A46A54B5361FB69C2E9063110
:108A64004FF400731384A24B42F8103F00234FF4D9
:108A74001251A04801F0AAF9023DC546D2E718F800
:108A8400013B54F82300FFF7DDFCFB6F01303BB1E1
:108A9400D7F880309E423EBFFB6F23F816000136A4
:108AA400054498E7BB6F13F004061CBF7E6AD944E3
:108AB400A9E73B6923B1F86909F097F90028C7D100
:108AC400BB6FDA0705D4A5EB0B05ABE77B6A002B7C
:108AD400A8D04046FFF7B6FCFB6F43B1D7F880300F
:108AE4009E423FBFFA6F431C22F8163001360544FC
:108AF40098E7BBF1000F6ED0BB6F13F004066DD086
:108B0400D846002607F140005A4649460CF00CFCB2
:108B14007B69D9445B007B607B6909EB4303BB60E1
:108B2400BB6F03F002033B60BB684B4558D1B96F80
:108B34006378B86F890748BF002106EB030258BF6A
:108B44004FEA5801C507D2B200F19A8010F0040F21
:108B540014BF40460020FB616270A070E1702046A3
:108B6400BA69F9687B6A9847051EFFF614AF3B6A39
:108B740041462370FB69BA6963707B6984F802B06B
:108B8400E37007F140007B6A9847B0F10008C0F237
:108B9400A480FB68AAEB0B01C91A7B684846C91A72
:108BA400BA697B6A98470028C0F299804FF0000B9D
:108BB400A84408EB000507F1300AB34562D300214D
:108BC400BA6908467B6A9847E5E65E464FF00008B6
:108BD40007F1300098E75E46D84699E7B04697E734
:108BE40019F8021B3F4B19F8015C54F82500984210
:108BF40002D33D4B98421DD33B6923B1F86909F078
:108C0400F4F8002890D13B68FBB908F1280307F178
:108C1400280208F1010003EB020C07F1500308F1EC
:108C2400020853FA80F00CF8101C5FFA88F800F878
:108C3400105C79E73B692BB1F86909F0D6F8002894
:108C44007FF472AFBB6FDB0709D506F1280307F188
:108C54002802711C9E1806F8205CCEB264E7BB6F34
:108C640058077FF561AF08F1280307F1280208F1DE
:108C7400010103EB020808F8105C5FFA81F853E77E
:108C8400002068E71BF80A3054F8239087F82F3047
:108C9400FB6FFBB133F81B800121BA697B6A07F1D2
:108CA4002F00984700281ADB0544B8F1000F06D1BD
:108CB4004846FFF7C7FB00F101081FFA88F8414650
:108CC4004846BA697B6A9847002808DB05440BF1DB
:108CD400010B72E7D7F87C80DEE745465BE6054684
:108CE40059E600BF7C530100AC740100B75D01007C
:108CF4000400000144570100014B1860704700BF95
:108D04003C81002080B505460E461746984608F07B
:108D14008BFA03460CF026FB0446DFF81890424613
:108D240049F8003039463046A84754F8090002F0A3
:108D3400DDF900BF080000002DE9F047058B04466B
:108D44002807904611D4022905F0070540F0CD808C
:108D5400204609F02DFB78B10138218B042811D865
:108D6400DFE800F0C3106D85950001290CBF45F0C4
:108D7400100545F02005258388F31188BFF36F8F14
:108D8400BDE8F08701F0070AAA4500F0A680002795
:108D9400B9463E46A368002B00F0BD8041F00801AF
:108DA400218388F31188BFF36F8FA168002900F035
:108DB400BB800D68002900F0B78033465246204638
:108DC400D1F80480C047002D76D02B6829461D4673
:108DD400F0E701F007035A1F012A1BD8002221F0F3
:108DE4000701062B276889B2C4E9002209D13B4652
:108DF40003E0628B013262831B68002BF9D141F0DE
:108E040002012046218309F0D3FA00287BD041F0E7
:108E1400200177E0042B0AD121F0070189B2204612
:108E2400218309F0C5FA10B141F020012183218B7F
:108E340001F0070AAA4550D00027B946AAE72369DA
:108E440021F0070141F00601062DD3F8009021839B
:108E54002DD1B9F1000F40D041F00801218388F3EE
:108E64001188BFF36F8F20463949C84729E021F0A4
:108E74000701236941F0040189B2042DD3F8049059
:108E84002183E6D000274FF0040A3E4682E721F012
:108E94000701236941F0050189B2052DD3F8089033
:108EA4002183D6D000274FF0050A3E4672E70027FB
:108EB4004FF0060A3E466DE72B4687E7B9F1000FEF
:108EC400D1D14FF02003EFF3118883F31288BFF35D
:108ED4006F8F238B23F008032383258BEA062ED57B
:108EE40025F01003238305F007056669218B002E06
:108EF400BFF66FAF00232768C4E9003321F00701F0
:108F040041F001012183218B4FF0000901F0070A90
:108F1400AA457FF43FAF002F9BD041F00801218385
:108F240088F31188BFF36F8F002FC7D03D6839468F
:108F340033465246204609F067FA2F46F4E7AB065B
:108F44007FF51AAF25F02003238305F00705FFE61C
:108F54003924010007B50DF107000AF0A1FE114BF9
:108F640098421CD14FF480620F4B1049C3F8B825C6
:108F74004FF40062C3F83C259DF807000AF07CFE1C
:108F84000B499DF807000AF072FE01209DF8073096
:108F9400984005F03DFF002003B05DF804FB6FF03E
:108FA4000B00F9E70000AD0B00A002402CA002402A
:108FB40028A10240052370B5144D154E2C780134B8
:108FC400B4FBF3F303EB8303E41A0AF003FE114A40
:108FD400137823B156F82430C01A072813D90E4B3E
:108FE400D3F8141141B10021C3F81411D3F814318A
:108FF4002C700CB9012313702C780AF0EBFD46F8A1
:109004002400012070BD0020FCE700BFC9930020AC
:10901400D0900020C89300200050004048B1054B78
:10902400054A1B68B3FBF2F35843044B43F00103B6
:1090340018477047E081002040420F00305801007B
:1090440070B5049CC4F30726304605F06DF9E5B20B
:10905400014628460AF01CFE00220120074BA40BFF
:1090640004F0FC041A51A84005F0D8FE304605F07F
:109074000FFB2846BDE8704006F05EB880A00240B1
:10908400F0B583B000AF381D06F050F8284B984275
:109094004BD105F0DFFA041E13DA387906F04CF8E8
:1090A4006D4688B06A46234BC2E90534032342F86F
:1090B400103F00234FF4C2511F4800F087FEAD4615
:1090C4002FE040F607031D4D7C71AE68FB80746889
:1090D4007B6814B96FF05704E2E708212846184A60
:1090E400A047041EDCDB3369002BF3D001220821E6
:1090F40028469847041ED3DB01203B79984005F0AD
:1091040087FE78793D79FE790AF04FFD01462846BD
:109114000AF0B2FD0B4BB60045F000459D51002C02
:10912400BED120460C37BD46F0BD6FF01204B7E740
:109134000000AD0B6F5E0100BC570100A454010098
:109144004D91000080A102402DE9F341144683684B
:109154001B690BB100229847C4F30726304605F07B
:10916400EBF8054630460AF020FD4FF00008E7B260
:10917400014638460AF090FD104B220E920043F847
:109184000280304605F0D0F80D4A4FEA943C0CF0CA
:10919400FC0C47F0004342F80C30014638460AF014
:1091A40066FD084B05F132020093304643460194B4
:1091B40052000AF003FD02B0BDE8F08180A1024034
:1091C40080A00240459000000AF04DBD7FB570B903
:1091D400124B1348059302234FF4825104AA0493BB
:1091E40009F058FC6FF0150007B05DF804FB8368C4
:1091F40063B90C4B0A48059302234FF4825104AA25
:10920400049309F047FC6FF00400EDE71B681BB101
:1092140007B05DF804EB18471846E5E7A05E0100C7
:1092240064570100B15E010030B587B008B101B1E7
:109234006AB9134B1348059302234FF4825104AACD
:10924400049309F027FC6FF0150007B030BD846863
:109254000CB1E56865B90C4B0A48059302234FF439
:10926400825104AA049309F015FC6FF00400ECE7A2
:1092740041F8040BE36807B0BDE83040184700BF6D
:10928400CF5E010064570100B15E010030B51346A2
:10929400044687B068B91A4B1A48059302234FF461
:1092A400825104AA049309F0F5FB6FF0150007B08E
:1092B40030BD006860B9144B1248059302234FF483
:1092C400825104AA049309F0E5FB6FF00100EEE774
:1092D40082680AB1956865B90C4B0A480593022364
:1092E4004FF4825104AA049309F0D4FB6FF00400F4
:1092F400DDE70A46AC46616807B0BDE83040604728
:10930400FB5E0100645701000C5F0100B15E0100C7
:109314000020014B186070470000072030B50C4650
:109324000E4985B00291D0F8AC110546CDE9003163
:1093340000F1E0014FF0FF33204606F023FD50B961
:10934400012384F86430D5F8A83123B1204605B050
:10935400BDE83040184705B030BD00BF8F2B010079
:1093640038B50C461146054609F011FC034638B9D8
:109374002846044909F00BFC03460020236038BD4D
:109384000120FBE7987201002DE9F04F012381468B
:109394000569466885B005F55B77D7E8EF2F002AA5
:1093A40003D1C7E8E13F0029F7D10CBF1A460022D8
:1093B40040F0B180B368B16A05F5E4781C1F10462B
:1093C40009F06AFC84425FD8013A00F09E80B2FA48
:1093D40082F24FF00044D44072682046073222F0F3
:1093E4000302C5F86022B16A09F056FCC5F86402AC
:1093F400B36A40466343033323F0030302EB43029F
:10940400230103EB4403093323F0030303EBC403F5
:10941400C5F858221A440832C5F854227368C5F8AE
:109424005C42C5F850323D4BC5E9A963316800F090
:10943400BDF9044630BBD9F804A0D9F81090DAE994
:10944400073409F5307B012B584608BF103C0BF05C
:10945400E4FB0023DAF8240031494FF4806201EB85
:10946400802100935846234607F028FB09F52C7009
:109474002C490BF0A4FBDAF8140083685C682CB95F
:109484006FF05704002139E0013298E74B46264A31
:10949400DAF81810A04704460028F3D1DAF81400CB
:1094A40083681B69002BEBD00122DAF81810984767
:1094B40004460028E6D11D4B2846C5F8A8311C4BAC
:1094C400C5F8AC311B4B0393D5F810320293D5F891
:1094D4000832CDE90083D5F86832B26AD5F868134A
:1094E40000F02CF904460028CCD105F1E00006F088
:1094F400F7FC0028C5F870030ADB0221384609F09E
:109504007BFB204605B0BDE8F08F6FF00B04B9E794
:109514006FF01504B6E76FF07704F2E7E52B01006E
:1095240078940020CB2B0100BF2B01003D95000057
:10953400732D01002D2C010013B5044640B1002306
:109544000122CDE90032074BD0E9091206F0CEFB27
:10955400A36E1B6823B1E06E02B0BDE8104018474B
:1095640002B010BD9872010013B504460846216983
:1095740001F55B71D1E8AF1F022910D193B1A0B1FD
:109584000121CDE900311346D0E9091206F0AEFB02
:10959400074B984208BF6FF00B0002B010BD6FF08C
:1095A4000F00FAE76FF04C00F7E76FF00100F4E703
:1095B4002EF8FFFF2DE9F74388461546066906F5A0
:1095C4005B73D3E8AF3F022B5FD1136823B96FF00D
:1095D400150003B0BDE8F0831B78002BF7D0D6F854
:1095E4006893B9F1000F33D106F5D8774FF0FF3205
:1095F4004FF0FF33384607F02DF830462A6801A9AA
:10960400FFF7AEFE019C1CB9384609F0F3FADEE719
:1096140005F10803A3666B6984F86490E366E46368
:1096240060B1384609F0E6FA21463046236E2A68CE
:10963400FFF774FE0020C8F80040CAE7202229681A
:1096440004F140000BF038FE384609F0D3FAF1E794
:1096540030460F4909F09BFA04460028B7D005F1BB
:10966400080383666B69C063C366002380F86430B3
:109674002022296840300BF01FFE2246012130468B
:1096840000F03EF80028D5D0A1E76FF00F00A0E766
:10969400987201002DE9F04F05460E4690460027CA
:1096A400D0F8B0A085B0AAF5AE7421463046FEF7D6
:1096B400B7FEE0B9114BA4F1400B0293DAF8103075
:1096C4003246CDE9008329464FF0FF335846AAF5C8
:1096D400CE7906F057FB60B97023012203FB079390
:1096E40083F86420DAF80C300BB15846984770348C
:1096F40017B105B0BDE8F08F0127D6E7D52D0100DD
:109704001FB5144690B18AB1012912D10A4B00F158
:10971400E0010293D0F8AC31403201934FF0FF33B3
:109724002046009306F02EFB04B010BD6FF0150028
:10973400FAE70020F8E700BFD52D01002DE9F0433A
:1097440087B00E46DDE90E811446DDE910251F467B
:1097540030B329B3DFF850C000F1E009002D08BF91
:1097640065469EB9CDE9034400F5CE7420460596BE
:109774000BF056F803ABCDE900432A463B4641467D
:10978400484606F0D3FB07B0BDE8F083002241460B
:109794000E9248462A4607B0BDE8F04306F0F0BCF6
:1097A4006FF01500EFE700BF99960000F0B50E4684
:1097B400044689B000286FD001230246C363002306
:1097C400D0F89810364F403040F80C7C42F8301FE7
:1097D400CDE901334FF0FF330093C36D0AF0E0FA93
:1097E400304A06AB92E8030083E80300184606F00B
:1097F4008FF90546D8B904F1340006F06BF9054633
:10980400A8B93946284805AA0AF0A6FA054670B947
:10981400059B9A6872B10C33D4F89400C4F8A03054
:1098240009F007FBC4F8D40030B96FF00B052846E3
:1098340009B0F0BD0346EFE7D4F8940009F0F9FA53
:10984400C4F8D8000028F0D0D4F88C30D4F8A01094
:10985400C4F8A8300423C4F8AC30C4F8C4300223DC
:10986400A362124BB4F89420D4F8D470C4F8B8109E
:10987400C4F8D010D4F89010236204F1A403A4F81F
:10988400B020C4F8A470C4F8C010A4F8C820C4F868
:10989400BC00A661E362CAE76FF01505C7E700BF25
:1098A400365F0100E0570100405F01008458010069
:1098B4002DE9F047044607464FF00109DFF85080D0
:1098C40014B93846BDE8F08794FAA4F5B5FA85F5DD
:1098D40009FA05F32E0108EB05156FEA030A24EAD9
:1098E40003042B7B002BEBD058F806301B694BB9D3
:1098F4004644736804222846196807EA0A0700F0F8
:1099040051FADDE7284698470028D9D1F0E700BF8F
:10991400CC57010030B5002289B00F490F480BF035
:1099240022FB002200230024CDE906230E230C4D44
:10993400CDE903344FF440722846CDE90144094B84
:109944000949009406F0FEFD084928460AF0FFFF85
:10995400204609B030BD00BF75990000F88B002087
:10996400688700204D9C000078980020485F010023
:10997400014806F059BF00BF548300202DE9F04789
:1099840080461F480F4609F0A6FA0646002830D044
:1099940000252846BDE8F087237B73B12368DB6884
:1099A4000BB12046984723681B69D3B96368042226
:1099B4002046196800F0F6F9013610344C45EBD313
:1099C400B8F1000FE5D0002DE2D02846FFF770FF74
:1099D4000546002FF7D000214FF4A47007F00AFCCD
:1099E400F1E7204698470028E0D00AFA06F31D4321
:1099F400E2E705464FF0010A024CDFF80C90DDE780
:109A0400F4900020CC570100DC570100014B53F8BF
:109A140020007047C458010008B5034608462BB11E
:109A2400044A136000F074FC002008BD6FF01500B8
:109A3400FBE700BF6C81002010B5044C237813B9F8
:109A4400034806F0F1FE0123237010BDCA930020E1
:109A54005483002010B50446064809F03CFA3CB192
:109A6400054BD3E8EF1F0139C3E8E21F002AF8D100
:109A740010BD00BFEC900020F090002000200146B3
:109A8400034BD3E8EF0FC3E8E21F002AF9D1704774
:109A9400EC90002070B5FFF7F1FF0546074C084E27
:109AA400B44200D370BD63685B792BB123685B68F3
:109AB40013B12946204698471034F1E7CC570100EA
:109AC400DC57010010B5044C0449204608F061FE3F
:109AD400034B1C6010BD00BFD0820020B0580100B1
:109AE400E490002008B50023074A4FF400411370A6
:109AF400064A07481360074A1360FFF78DFFBDE865
:109B04000840FFF7DFBF00BFCB930020EC9000209C
:109B1400D72E0100F09000200146002200230148C6
:109B240008F058BED0820020014808F0F1BE00BF02
:109B3400D0820020024B0146186808F03BBF00BFEA
:109B4400E4900020014808F071BF00BFD0820020DB
:109B540070B5264B1878002847D0FFF7E5FF054677
:109B640070B1234BD3E8EF1F0139C3E8E21F002A89
:109B7400F8D1204C204EB4422DD32846FFF7DAFF0B
:109B84001E4B1F4C1B68002B19DD0BF0A5F94FF47D
:109B94007A72A0FB020302FB0131C30B43EA414387
:109BA400D4E900209B1A40F2E9324FEAD13161EB4B
:109BB4000001934271F1000101D3FFF76BFFD4E977
:109BC400003213F57A7342F10002C4E90032BDE8B1
:109BD4007040FFF7B7BF63685B7923B123682946F8
:109BE40020461B6898471034C5E770BDCA9300200F
:109BF400F0900020CC570100DC570100EC900020CD
:109C0400F08B002070B50D4D297861B90120FFF764
:109C1400B5FE0B4C0B4EB44206D3FFF799FF002858
:109C2400FBD101232B7070BD63685B791BB1236882
:109C340020469B6898471034EDE700BFCB93002083
:109C4400CC570100DC57010000212DE9F0470846FC
:109C5400FFF794FE044658B340F267684FF00009DA
:109C64000BF080FB1B4B1C4A1B58136033B11B4B7E
:109C74001B68092B02DD1A4806F0D6FD0025194F92
:109C8400DFF85CA044B12046FFF712FE044618B981
:109C94004FF0FF384FF0FF39FFF75AFF064628B957
:109CA400B5B942464B46504606F0E4FD3546E9E771
:109CB4004FF0FF384FF0FF39D2E72B689B691BB197
:109CC40000222846114698471035BD42F5D3E8E7EF
:109CD400054DFAE708000000E8900020F09000200D
:109CE40054830020DC570100CC57010013B51848F9
:109CF40009F0F1F8174B1B787BB14FF02003EFF319
:109D0400118483F31288BFF36F8FFFF721FF84F36D
:109D14001188BFF36F8F02B010BD0F4B1B68002B6F
:109D2400F9D050B9002200230C48CDE900234FF4A8
:109D34000042002307F0BCFCEDE70928EBD10748FB
:109D44000BF01DF9064802B0BDE8104006F06CBDEA
:109D5400F0900020CB930020E8900020F88B0020A6
:109D64005483002010B5064B04461B6898472146CF
:109D7400A060044808F0ACFDBDE81040FFF7B6BF92
:109D84006C810020D0820020044A054B9B1AB1EB61
:109D9400D30F34BF52F8310000207047F45601004D
:109DA400CC570100084B10B4C31A44681B1101338B
:109DB400237143689A7101224368196043685A7198
:109DC40010BCFFF739BE00BFCC5701002DE9F04F9E
:109DD4008FB0C1F34A2804AF0D469146B8607B604A
:109DE4000C0DB8F1000F63D000264FF0040B4FF0B8
:109DF4000A0A07F11403C7F80C80C7E907667E62F4
:109E04000193CDF808B0CDF800A007F11C03324649
:109E14004846F968FEF796FDB0F5006F03461CD37B
:109E24006C468AB0D9F8041004AB26481A46C3E934
:109E3400050140F2FF71D9614FF400711984224B7E
:109E440042F8103F4FF4125133462048FFF7BEFF4B
:109E5400A5462C37BD46BDE8F08FC0F30A0804F1CF
:109E64001700184420F0070080083B60FFF754FEF9
:109E740068F35325044690B13B6800F11001C7E92B
:109E8400083607F11403F961CDE900A3CDF808B051
:109E940048460F4AF96807F11C03FEF753FD68F3BF
:109EA40053252A4620467B68B96809F046F8D0E76E
:109EB40004F1170020F007008008FFF72DFE044688
:109EC400EDE700BF5D5F0100040000016C57010075
:109ED400132F01002DE9F04F87B00446DDE9105A35
:109EE400DDE912690F4693469846A6B3102133461E
:109EF40052460020CDF80090CDF81490FEF750FBA8
:109F0400014605F117000844144B04F007040BF054
:109F1400070BE40020F0070003EA412344EA8B1412
:109F240080081C430391FFF7F7FD44EA05540546F6
:109F340040B13EB1334652460399CDF800901030FB
:109F4400FEF72EFB434622463946284607B0BDE8B5
:109F5400F04F08F0F2BF3146D3E700BF00FE0F0018
:109F64000EB403B503AB53F8042B01460448019324
:109F740001F0A4FA02B05DF804EB03B0704700BF2F
:109F8400A52F0100CA0605D48B064CBF024903491C
:109F9400FFF7E6BF704700BF977201009672010099
:109FA4002DE9F04F89B09A46DDE914739DF84CB061
:109FB4000593169B04460D46179E06920493BBF127
:109FC400000F00F0858006F00803079308F09DFF5A
:109FD40006F002090246002849D020468549FFF7C9
:109FE400BFFF8046B9F1000F08D016F0440F40D1EE
:109FF4002A4620468049FFF7B3FF804406F0010358
:10A0040053B17E4B204653F82B207D4B7D49002ACB
:10A0140008BF1A46FFF7A4FF06F00803002B54D02C
:10A02400794B204653F82B207849FFF799FF0546D2
:10A03400069B2BB11A4620467549FFF791FF05444C
:10A04400BAF1000F05D0524620467249FFF788FF47
:10A0540005444544002F49D1049B002B4FD1F307FD
:10A0640000F1C18031462046FFF78CFFB5E0804601
:10A07400B8E7694B18680028BFD0684B4FF47A7969
:10A084001B684FF46161B5FBF3F5B5FBF0F300FB1E
:10A09400135509FB05F5B3FBF1F2B5FBF0FE4FF0E8
:10A0A4003C0C01FB123100FB1E55B1FBFCF309FB18
:10A0B40005F5B5FBF0F50CFB131120460091CDE935
:10A0C40001E55749FFF74CFF97E706F00805AFE7AE
:10A0D400BAF1010F06D1002F65D1049B002B7CD06F
:10A0E40000250CE0002FF8D04E485DE04E483B467A
:10A0F40022464E4907F048FE049B002B69D0DFF846
:10A104003081DFF83091049F3146102F204628BF5C
:10A1140010274FF0000AFFF735FF554546DC059B35
:10A12400494620461A78FFF71BFF4FF0010A1AF040
:10A13400070F03D141462046FFF712FF57453CD98C
:10A14400059B4946204613F80A20FFF709FF0AF148
:10A15400010ABAF1100FEAD14FF0000A204636493D
:10A16400FFF7FEFE5246059B20469A5C334B995CF2
:10A1740011F0970F08BF2E223149FFF7F1FE0AF1C3
:10A18400010ABAF1100F1DD01AF0070F03D141468E
:10A194002046FFF7E5FE57455246E4D8414620469F
:10A1A400FFF7DEFEEBE720485D46A0E74146204688
:10A1B400FFF7D6FE0AF1010AAFE720462149FFF76F
:10A1C400CFFEC4E7059B3B440593049BDB1B049330
:10A1D40099D1BBF1000F7FF442AF204609B0BDE82E
:10A1E400F04F08F0D0BE2046054A0649FFF7B8FEF6
:10A1F40038E700BFA15F0100A55F0100D45801004A
:10A204009C5F0100E2680100E8580100CA5F010098
:10A21400D05F0100D45F0100FC900020F890002082
:10A22400AE5F0100D32F0100A52F0100C1B40000CF
:10A2340062720100D95F0100DF5F01009B730100BE
:10A24400E15F0100607201002DE9F0410F884B6865
:10A2540005460C4690468E6886B0C7F382175BB1FC
:10A26400144A9B1A43F3CF01002920DB2078C0F362
:10A27400C200FFF789FD0346214651F8102B608880
:10A28400C2F34A22002A01EB020408BF0021002283
:10A29400C0F30B10CDE90408CDE902142846314679
:10A2A40001970092FFF77CFE06B0BDE8F081002321
:10A2B400E2E700BFF456010042F20F7373B58B421C
:10A2C40028BF0B4605680446052168460D4A07F079
:10A2D400E9FA0646636828460B225B680A4908F0D7
:10A2E40045FE63683246694628465B6808F03EFED0
:10A2F40063681B2228465B68044908F037FE02B0F5
:10A3040070BD00BF8266010000600100E45F0100CF
:10A3140000210123064A904206D8064A01B90123C6
:10A324001360054B18607047012140085B00F2E799
:10A3340040420F00F8900020FC900020014B0020C8
:10A3440019607047149100200122024B02481A70D0
:10A3540008F019BECD930020185901000148FFF7F9
:10A36400ABBF00BF1859010010B5064B0C46186866
:10A37400FFF74CFB2146BDE8104003460F2202487C
:10A38400184700BF1491002018590100F8B50D4674
:10A394000446064F4618B44201D12846F8BD14F8C5
:10A3A400011BBB6801485B689847F4E790540100BF
:10A3B4002DE9F04F002703689DB002934368DFF84E
:10A3C400BCA103938368DDE902460493C368059343
:10A3D4000369DDE904BE0693436907938369DDE9F4
:10A3E400062C0893C36998460993089B0093CD599A
:10A3F4000CAB2DBA5AF8049BDD514FEAF223A94461
:10A4040083EAB213009D83EA72634B4425EA020592
:10A4140002EA0C0985EA09052B44434486EA0B0544
:10A424004FEA743888EAB408254006EA0B0985EA3D
:10A43400090588EAB4580437A844402F03EB0E05F5
:10A444004344DE46DDF8008040F088804FF0100A77
:10A454004B490A9151460AF1010A0DF1700E0AF0B6
:10A464000F070EEB870757F8407C01F00F094FEAFE
:10A47400B748019788EAF71801F10E0707F00F07AC
:10A484000EEB870757F8407C09314FEAF74E8EEA06
:10A49400774ECDF82CE001F00F010DF1700E0EEBAC
:10A4A40081010EEB890959F840EC51F8401CBAF1CE
:10A4B400400F7144DDF804E088EADE08DDF82CE0A2
:10A4C40041448EEA972E714405EA02084FEAF52EBC
:10A4D4002CEA050787EA08078EEAB51EDDF828800E
:10A4E4008EEA756E774458F804EF49F8401C7744B7
:10A4F4000F4400994FEA733E394484EA0607CDF8C5
:10A5040028808EEAB30E07EA030704EA06088EEAF7
:10A51400B35E87EA080777440F4401EB0B0ECDF8CE
:10A5240000C0B34622D10299394401600399194409
:10A53400049B416023448360059B3344C360069BB2
:10A5440073440361079B2B444361089B1344836159
:10A55400099B6344C3611DB0BDE8F08FB346CDF8D9
:10A5640000C0264694461C462A4640E794462646A2
:10A574002A461C4675463B466CE700BF2859010035
:10A584006459010010B50446C8B17022002108F0D6
:10A594003AFD0B4B0B4A0C49C4E900230B4B0C4806
:10A5A400C4E902130B4BC4E9040301200A4BA36161
:10A5B40003F17453A3F52303A3F69243E36110BD9F
:10A5C40085AE67BB67E6096A72F36E3C3AF54FA540
:10A5D4007F520E518C68059BABD9831F0149102211
:10A5E4000A60704710ED00E072B6404080F31188B5
:10A5F400BFF36F8F01B5FEF7DDFC00280AD0BFF36F
:10A604004F8F30BF00BF00BF00BF00BF00BF00BFFF
:10A6140000BF00BFBDE8014062B6BFF36F8F704753
:10A6240072B6494081F3118801B5FEF7C3FC0028D6
:10A634000AD0BFF34F8F20BF00BF00BF00BF00BFD1
:10A6440000BF00BF00BF00BFBDE8014080F3118818
:10A6540062B670472DE9F04781460C4600AF0029E9
:10A664004CD0D1E900126E468AB0A3686D464FF013
:10A67400050AA8462548C5E90723C5E9050148F8A0
:10A6840010AF002342464FF421512148FFF79EFBAF
:10A69400D4E90312B5466369AD461E48C5E90723EC
:10A6A400C5E90501C5F810A0002342464FF4215125
:10A6B4001748FFF78BFBB54688B0E3696D464FF04A
:10A6C400030AA846144AC5E9052348F810AF002335
:10A6D40042464FF4C2510E48FFF778FBB546A369D2
:10A6E400AD460E4AC5F810A0C5E90523002342462D
:10A6F4004FF4C2510648FFF769FBB5462146484668
:10A7040005F054FDBD46BDE8F08700BF466001007A
:10A71400AC57010075600100A4600100B360010042
:10A7240040B2002807DB01234109034A00F01F005F
:10A73400834042F82130704700E100E040B2002835
:10A744000CDB01220649430900F01F00824020333C
:10A7540041F82320BFF34F8FBFF36F8F704700BFC3
:10A7640000E100E0054B420953F82220012300F0E8
:10A774001F0003FA00F01040704700BF00E100E042
:10A7840040B2002801F10101ACBF00F16040064B6A
:10A794004FEA4111C9B2ABBF00F5614000F00F00B0
:10A7A40080F800131954704714ED00E030BFFFF730
:10A7B400FDBF00BF0B4A08B50B4B22F07F029A6025
:10A7C400BFF34F8FBFF36F8FD3F8882022F470024A
:10A7D400C3F8882005F0AAFD06F09EFD00F000FCF9
:10A7E40005F0EEFD0080000000ED00E0094A0A4992
:10A7F400936809689867D96708494B6843F08053A0
:10A804004B60002383F31188BFF36F8F9368D86F75
:10A81400704700BF90930020705C010000ED00E0E1
:10A8240018498A6882F881E04FF030001044EFF351
:10A83400098C80E8F01F202080F31288BFF36F8F0B
:10A84400114F4FF000664A698A603E604FF074040D
:10A85400141920680D4C206092F981E0906F002358
:10A86400936780F3118802F1300090E8F01F8CF3B5
:10A87400098802F1000004B508F0FFFDBDE80440BA
:10A88400704700009093002004ED00E01891002030
:10A894001EF0040F0CBFEFF30880EFF30980816909
:10A8A40011F8021C0229FFD001B508F0D7FD01BD43
:10A8B40042F8203C009B0D4942F81C3C019B21F0CE
:10A8C400010142F8183C029B42F8081C42F8143C6F
:10A8D4004FF0807342F8043C002383674FF43C43F9
:10A8E400203A0265C0F88030704700BF098D00002F
:10A8F4000A4B446F98600A4B1C60436E83F30B88C9
:10A90400104681F30988002163B681F31188BFF3EF
:10A914006F8F00220023FEF7F5F900BF909300200B
:10A924001891002001B5EFF30580A0F110004FEA63
:10A93400C0000449014409C99847BDE801400249DF
:10A9440008470000CC540100ADA90000114B124A85
:10A954002DE9F041D518013DB5FBF3F5DFF83C8056
:10A964005D430F4B074608EB0304013CB4FBF3F4CF
:10A9740003FB04540E1B30460A490AF0D5FC701937
:10A9840042460021083E0AF0DCFC7E6704F1080020
:10A99400BDE8F08101000000000000000400000098
:10A9A40004000000DC570100044B99685869884290
:10A9B40003D003494FF080520A60704790930020FF
:10A9C40004ED00E02DE9F04186B006460D4600AFE7
:10A9D4000224444B4FF482517B6143483C6107F1AC
:10A9E400100208F04EFD414B9B6ADB0678D5404BC4
:10A9F4003D484FF48251C7E9044307F1100208F0BF
:10AA040040FD1120394B9B6A1C070BD5394B364846
:10AA14007B6102234FF482513B6107F1100208F07D
:10AA240030FD1220314CA36A990723D5E846324BF6
:10AA340007F110027B6102234FF482513B612A48E3
:10AA440008F01FFD636BA26A120612D588B06A462D
:10AA54002A492548C2E9051303234FF4C25142F899
:10AA6400103F08F00EFDC5461EB1A36A23F0800313
:10AA7400A36213201D4B9B6ADE070BD5204B1A489B
:10AA84007B6102234FF482513B6107F1100208F00D
:10AA9400F8FC1420154B9B6A9C060BD5194B1248E5
:10AAA4007B6102234FF482513B6107F1100208F0ED
:10AAB400E8FC15200D4B18379A6AD10658BF9A6ADC
:10AAC4009A6A920642BF5A6A22F400525A629A6AF9
:10AAD40042F0FF029A6200232B70BD46BDE8F0816C
:10AAE40010208FE7E1600100AC57010000ED00E0A9
:10AAF400F76001002A6101003D6101005561010018
:10AB04006B6101008A6101002DE9F04186B00646BF
:10AB14000D4600AF0224474B4FF482517B614648F7
:10AB24003C6107F1100208F0ACFC444B9B6AD90469
:10AB34006DD5434B40484FF48251C7E9044307F1B4
:10AB4400100208F09EFC17203C4B9B6A1A050BD59B
:10AB54003C4B39487B6102234FF482513B6107F13E
:10AB6400100208F08EFC1820344CA36A9B0523D5F0
:10AB7400E846354B30487B61022307F110023B6104
:10AB84004FF4825108F07DFCA36BA26A100412D525
:10AB940088B06A462D492848C2E9051303234FF4B7
:10ABA400C25142F8103F08F06CFCC5461EB1A36ABE
:10ABB40023F40043A3621920204B9B6A59050BD54B
:10ABC400234B1D487B6102234FF482513B6107F103
:10ABD400100208F056FC1A20184B9A6AD20518D5B0
:10ABE4001C4B15487B6102234FF482513B6107F1F2
:10ABF400100208F046FC1B20104A1837936A43F4ED
:10AC04007F43936200232B70BD46BDE8F08116207C
:10AC14009AE79B6A9B04EFD50F4B07487B6102239D
:10AC24004FF482513B6107F1100208F02AFC1C200A
:10AC3400E2E700BFB9610100AC57010000ED00E09C
:10AC4400CF6101002A610100E0610100F9610100A6
:10AC54000E620100296201008A61010010B586B00C
:10AC640002243E4B4FF482513D4804AA05930494B8
:10AC740008F007FC3B4B9B6A99016CD53A4B38486A
:10AC84004FF4825104AACDE9044308F0FAFB1E20D4
:10AC9400344B9B6ADA010AD5344B314805930223BD
:10ACA4004FF4825104AA049308F0EBFB1F202D4BB0
:10ACB4009B6ADB020AD502242D4B29484FF48251AA
:10ACC40004AA0593049408F0DCFB2046254B9B6AF8
:10ACD4001C030AD5274B2248059302234FF48251C3
:10ACE40004AA049308F0CDFB21201E4B9B6A590350
:10ACF4000AD5214B1A48059302234FF4825104AA22
:10AD0400049308F0BEFB2220164B9B6A9A030AD5D3
:10AD14001A4B1348059302234FF4825104AA049357
:10AD240008F0AFFB23200F4B9B6ADB030AD5144BBF
:10AD34000B48059302234FF4825104AA049308F0AC
:10AD4400A0FB2420074A936A6FEA03436FEA134384
:10AD5400936206B010BD1D209AE700BF4162010056
:10AD6400AC57010000ED00E0596201006C62010083
:10AD740086620100B0620100CE620100F36201004C
:10AD84000D6301002DE9F0478AB07D4B0446D3F8EA
:10AD940004908A461646002500AFC9F3080885F3D7
:10ADA4001188BFF36F8F02F07F43B3F17F4F25D13A
:10ADB400D30723D4500603D411070FD401250FE081
:10ADC400704B4FF48251FB6102236F48BB6107F162
:10ADD400180208F056FB16F0040600D0544600256D
:10ADE4000023FB71A8F10303092B00F2A880DFE81C
:10ADF40003F0079B9E97A6A6A6A6A6A12C46EFE75E
:10AE0400E9464FF00208614B07F11802FB614FF469
:10AE140082515D48C7F8188008F033FB0023584E70
:10AE2400FB71F36A9A070BD5594BC7E906834FF4B4
:10AE34008251554807F1180208F023FB002338E03B
:10AE4400F36A002B01DA534BEFE7F36A5B00F5D5A5
:10AE5400514B07F11802C7E906834FF482514A485F
:10AE640008F00FFB7369A26943F480737361BFF345
:10AE74004F8FBFF36F8F736932F8022C23F4807302
:10AE84007361BFF34F8FBFF36F8F4DF602739A4216
:10AE940031D188B023686A4640493B48C2E905136A
:10AEA40003234FF4C25142F8103F08F0EAFACD46AA
:10AEB4002368FA79DAB907F1080604F1200C32465E
:10AEC40020686168083403C264451646F7D17A6A7B
:10AED400002D50D0C2F3080121B96FEA52226FEA63
:10AEE40042227A62184607F10801FFF7B3FB2837BC
:10AEF400BD46BDE8F087B36ADBB223B10120F91D7A
:10AF0400FFF760FD0EE0B36A13F47F4F04D0012015
:10AF1400F91DFFF7F9FD05E0B36AB3F5803F8DD362
:10AF2400FFF79CFE0346C4E70020F91DE8E7002074
:10AF3400F91DEEE71A4BFB610223BB6177E7194A5F
:10AF44006E4619F4F87F8AB0174B18BF13466A4649
:10AF540016490D48C2E90513A8F11003D3614FF453
:10AF640000731384124B4FF4115142F8103F08F050
:10AF740088FAB54662E722F4FF7222F00102B0E7D4
:10AF840000ED00E066630100AC5701008963010035
:10AF9400A0630100C1630100CF630100EE630100FF
:10AFA4000A6401004D630100386301002E6401004E
:10AFB40004000001044B5A6942F010025A615A69B4
:10AFC40042F480625A61704700ED00E0EFF30880BC
:10AFD400EFF3098101B57246FFF7D4FE01BD00BF4E
:10AFE400002320210348C2180133452B82F80013A3
:10AFF400F9D1704700E100E0002080F31488BFF32A
:10B004006F8F002080F30A8880F30B88FEF7DCF84A
:10B0140000200E490860BFF34F8F0D4880F3088865
:10B0240000F03EF8202080F311880A484FF40061B4
:10B03400401880F30988EFF314800221084380F359
:10B044001488BFF36F8FFFF7B5FB000094ED00E0A9
:10B0540068B5002028A40020BFF34F8F0549064B94
:10B06400CA6802F4E0621343CB60BFF34F8F00BFA2
:10B07400FDE700BF00ED00E00400FA0500231846D8
:10B084000649D1F89020C2F30722934200DB7047AF
:10B09400C1F89830C1F8A0000133F6E700ED00E0F4
:10B0A40010B572B6002484F31388FFF7E7FF234634
:10B0B4004FF0FF300C4A03F120010133102B42F80A
:10B0C4002100F8D100234FF0FF30074A03F160015B
:10B0D4000133102B42F82100F8D162B6BFF34F8F31
:10B0E400BFF36F8F10BD00BF00E100E0084B9B6809
:10B0F40083420BD1EFF3058343B1064B5A6842F008
:10B1040080525A605A6A22F400425A6206F092B897
:10B114009093002000ED00E01FB5094C094A234636
:10B124000121094800F02AF900230393074B012168
:10B13400E41A01A80193029400F02AF904B010BDA6
:10B144000000072000800020285A0100F08300201E
:10B1540010B50C7A0B6804F01F0223F01F031A4386
:10B16400CB68640923F01F03054943EA440343F011
:10B174000103C1F89800C1F89C20C1F8A03010BDAB
:10B1840000ED00E080B500AF88B06A46074BC2E925
:10B194000530032342F8103F00234FF4C251044802
:10B1A400FEF714FE6FF01500BD4680BD4564010036
:10B1B4008C5701002DE9F04F144606464FF0000964
:10B1C40087B05F4D00AF79607B68994535DAD6F872
:10B1D4000480B8F1000F54D0B8F11F0F1BD918F038
:10B1E4001F0F18D1D6F800B01BF01F0F13D158460B
:10B1F40008F04CF9824608EB0B00013808F046F9D8
:10B2040082451FD06FF0150A6C4688B06A464D49D6
:10B21400C2E9051A05E06C4688B06A464A4BC2E9A1
:10B224000539032342F8103F00234FF4C251474825
:10B23400FEF7CCFDA5466FF0150420461C37BD462D
:10B24400BDE8F08F1AF1160FDED05445DCDDC5F8E9
:10B2540098A0D5F89C00C5F898A0D5F8A02020F0B7
:10B264001F0042F01F08D6E900211144904201F169
:10B27400FF3B1ED1D84508D131465FFA8AF008F069
:10B284000EF909F101090C369EE7C5F898A0D5F826
:10B294009C3021F01F0103F01F030B433146C5F816
:10B2A4009C30E0B208F0FBF810F1160FC3D0441C38
:10B2B400E7E7013AD845E0B222F01F02C5F898A0AA
:10B2C40008D1D5F8A030314603F01F031343C5F865
:10B2D400A030E7E7D5F8A01001F01F010A43C5F834
:10B2E400A020314608F0DBF810F1160FA3D0C5F802
:10B2F40098A0D5F89C203B7C08F1FF3862F3040346
:10B304003B74D5F8A0303A7C5B0863F347123A7477
:10B31400D6E900321344BB6023F01F03441C4344AA
:10B32400A3EB0B03E0B223F01F0307287B6102D9D0
:10B33400FFF728FFB8E707F10801FFF709FFB6E7B1
:10B3440000ED00E08E6401006B6401008C57010085
:10B354000522044BC3F89420BFF34F8FBFF36F8FC4
:10B36400704700BF00ED00E0BFF35F8F0022024B87
:10B37400C3F89420704700BF00ED00E010B5034C03
:10B384002278FFF717FF207010BD00BFCE93002076
:10B394002DE9F74F294D8A4606464FF00008AB4683
:10B3A400274FD0451BDAD6F80490B9F1000F3FD0EF
:10B3B40031680846019108F069F80199044609EBDF
:10B3C4000100013808F062F884424FF014021D4B6A
:10B3D40008D002FB08F36FF015024BF8032003B00A
:10B3E400BDE8F08F14F1160F2C60F8D01978A14243
:10B3F400F5DD02FB08B0C7F89840C7F89840D7F8C5
:10B404009C4000F10801007B64F304000871D7F844
:10B41400A0000C79400860F347140C71D7F89C1015
:10B4240021F01F016960D7F8A01021F01F012961E4
:10B4340008F1010814350C36B3E700BF1C91002055
:10B4440000ED00E0CE93002038B50E4D2C68082C9A
:10B4540015D80020FFF788FF0B4B0C4AC3F8C02017
:10B46400844205D10A4B00201C70FFF771FF38BDE0
:10B47400696801EB0011FFF76BFE0130F0E74FF054
:10B48400FF30F4E7345A010000ED00E0AAFF440065
:10B49400CE93002008B5024B1B689847002008BDD6
:10B4A40030910020034B044A1860937843F0020360
:10B4B400937070473091002070810020F0B587B000
:10B4C40007460E4614460021102268461D4609F020
:10B4D40038FF02238DF80230054B2A462146684680
:10B4E400CDE90476019306F009FA07B0F0BD00BF78
:10B4F400E334010008B50649064821F00701C1F10B
:10B50400005202F5E02206F0FBFE002008BD00BF59
:10B5140077D6002068CD0020F8B5144BD3F830213D
:10B52400D3F83431072A1CD1023B032B02D8104A2A
:10B53400D35CB3B1012600244FF050270D4D0520F4
:10B54400C7F81866C5F8144608F08FFB3046C5F8EE
:10B55400146608F08AFBC5F81446C7F8184600209C
:10B56400F8BD0022034BC3F81426F8E700F00720C7
:10B57400C06401000050004008B5044809F06AF9AD
:10B5840000280CBF6FF01200002008BD7C5401009D
:10B594000E4B402928BF402170B51D460C4C46185F
:10B5A400B04203F1020304D1002305F81130074827
:10B5B40070BD02781209A25C03F8022C10F8012B6A
:10B5C40002F00F02A25C03F8012CE9E7ED930020DE
:10B5D4003565010030B503788BB0044607AD032B05
:10B5E40021D8DFE803F0021A1C1E12492846FCF792
:10B5F40021FF059563781E210493A3780E4A0393D3
:10B60400E3780E4802932379019363790093A37935
:10B6140006F048F909480BB030BD0949E6E7094985
:10B62400E4E70949E2E70A212846084A06F03AF91C
:10B63400DFE700BFF064010012650100CF93002032
:10B64400F7640100FE64010008650100376701002A
:10B6540038B50546054808F08BF8044620B10121A9
:10B664000C3008F0BFF82576204638BDC48300208E
:10B674000246002070B50B460A49D1E8EF4FC1E8F5
:10B68400E50F002DF9D124B9BDE870400120FFF782
:10B69400DFBF01212082217604F10C0008F0A2F81A
:10B6A400204670BD0081002070B505460E3D012D79
:10B6B4000C461046194603D8BDE87040FFF7D8BFC2
:10B6C40064B1094808F054F8044628B101210C304B
:10B6D40008F088F801232376204670BD0120BDE8D8
:10B6E4007040FFF7B5BF00BF6C83002070B58EB00B
:10B6F4006C4606460A4D0D2E0FCD0FC40FCD0FC458
:10B704000FCD0FC495E8030084E803009DBF0EAB82
:10B7140003EB860656F8380C02480EB070BD00BF25
:10B72400E85701004E6501000B46B0B50D8A00AF25
:10B7340004462946D868FFF72BFF8AB06A46094BAE
:10B74400C2E90750C2E9053440F202439384064B30
:10B754004FF43251054842F8103F07F0DAFEBD4677
:10B76400B0BD00BF5665010005000001245701006B
:10B77400B0B5044600AF02EBC303934203D12046A5
:10B78400FFF7D2FF18E0104610F8085BA54219D164
:10B794000B8A5078984211D96D4688B06A460A4996
:10B7A400D461C2E9051304234FF40151074842F858
:10B7B400103F07F0AEFEAD46BD46B0BD0846536827
:10B7C4009847F9E70246D8E7786501002457010055
:10B7D400B0B5324800AF07F0E8FF044600284BD06C
:10B7E400037E012B4AD1038A012B0CD840F65D233A
:10B7F4002B4A2C492C4806F0C3FE404080F31188A4
:10B804004FF0030002DF022104F10C0008F00EF8EF
:10B81400037805460E3B012B0CD840F66123204AE1
:10B824002249214806F0ACFE404080F311884FF0D5
:10B83400030002DF032321461D4A2878FFF798FFFF
:10B84400204601F09FFC1B4BD3F80431A3B11A49E5
:10B854001A4809F0D1F900280EDA6C4688B06A4615
:10B86400174B4FF4C251C2E905300323154842F87F
:10B87400103F07F04EFEA546BD46B0BD6D4688B0EC
:10B884006A4611490F48C2E9051303234FF4C25114
:10B8940042F8103F07F03DFEAD46D1E70481002099
:10B8A4009A650100CE650100E765010004660100A8
:10B8B400BC5A01000080002094810020B88C002034
:10B8C40046660100245701003266010010B50121CB
:10B8D40004460C3007F0AAFF2146BDE810400023BF
:10B8E400014A0078FFF744BFD45A010080B5012112
:10B8F40000AF0C3007F09AFF88B06A460378064917
:10B904000648C2E9051303234FF4C25142F8103F1D
:10B9140007F0FFFDBD4680BD6366010024570100AA
:10B924002DE9F843804600AF907A0E46144601F0A4
:10B934007BFB474D854218D0A47A6E46204601F021
:10B9440073FB8AB06A46434BC2E90740C2E9053833
:10B95400062355624FF442513F4842F8103F07F026
:10B96400D8FDB546BD46BDE8F883204601F064FB2A
:10B974004FF00C09394D09FB00504388434516D05C
:10B98400204601F059FB09FB00506C4688B06A461A
:10B994004388D361042332492F48C2E905184FF480
:10B9A400025142F8103F07F0B4FDA546DAE7DFF88C
:10B9B400B480D8F8000120B101F0E4FB0023C8F8FA
:10B9C4000031204601F038FB4FF00C0808FB005012
:10B9D4004368CBB1C6B9204601F02EFB012208FB17
:10B9E40000504068D0E90031007A01F01F0C02FADF
:10B9F4000CF2490908B303EB8103D3E8EF0F1043BA
:10BA0400C3E8E10F0029F8D1204601F015FB4FF0FF
:10BA14000C0808FB00508368002BA3D0204601F0DB
:10BA24000BFB08FB00F02E54204601F005FB08FB3D
:10BA34000055A86804F0F8FE94E7D24303EB8103B1
:10BA4400D3E8EF0F1040C3E8E10F0029DCD0F7E79B
:10BA5400988300208566010024570100349100205A
:10BA6400BA6601000080002038B5042104460C3079
:10BA740007F0DCFE4578017822464088FFF750FF46
:10BA840025B1BDE83840024804F0CEBE38BD00BF41
:10BA9400E880002038B5032104460C3007F0C6FEC8
:10BAA400E368057822461978B0F80100FFF738FFFB
:10BAB40025B1BDE83840024804F0B6BE38BD00BF29
:10BAC400E880002010B5C1E900239DF808300C4639
:10BAD4000B7201F0B1FA0C22024B02FB00335C60E2
:10BAE40010BD00BF349100202DE9F0474FF0FF3224
:10BAF4004FF0FF33064617480F4607F039FE4FF064
:10BB04000008044600F10C0A0121504607F06AFEC1
:10BB1400204684F8188001F08FFA4FF00C090E4D7E
:10BB240009FB00504680204601F086FA09FB0050CC
:10BB3400C0F80880204601F07FFA09FB0055032174
:10BB44005046C5F8048007F051FE068087702046F1
:10BB5400BDE8F08798830020349100202DE9F0435C
:10BB640087B0804615460C4600AF21B9FFF7BCFFED
:10BB7400044600285DD001220021384608F09CFFCD
:10BB8400204601F059FA0C23DFF8B49003FB00902F
:10BB94008760204607F022FE01462A4807F01CFE73
:10BBA4004FF4A0220023384604F064FE064688B110
:10BBB4004FF4A973244A2549254806F0E1FC32468E
:10BBC4004146244806F0DCFC404080F311884FF0E5
:10BBD400030002DF204601F02FFA0C23584319F822
:10BBE4000060F6B16D4688B06A461B4BD661C2E967
:10BBF400053804234FF40251184842F8103F07F067
:10BC040088FC2046AD4601F0BDFA092E14D00D2E55
:10BC14000CBF6FF00B006FF004001C37BD46BDE88D
:10BC2400F08315B12C600020F7E7204601F0AAFA52
:10BC3400F9E76FF06800F0E76FF06E00EDE700BF22
:10BC4400349100200C8100209A650100ED6601000A
:10BC5400E7650100F6660100226701002457010030
:10BC64002DE9F04188B0944D00AFD5F8243199689E
:10BC740011F001011AD140F6034007F10802FFF761
:10BC84006DFF0446002874D1B868C3681B785BB99B
:10BC940005F1D403D3E8AF2F02F00902D3E8EF1F74
:10BCA400C3E8E42F002CF9D101F06CFA002141F231
:10BCB400030007F10802FFF751FF0446002858D19A
:10BCC400BB687E4EDA68D2F80100D2F8051003C6CC
:10BCD400184601F057FA214641F2010007F1080223
:10BCE400FFF73CFF0446002843D1B868C3685A787C
:10BCF40085F870205A88A5F872201A7985F8712081
:10BD0400B3F80720A5F87420B3F80530A5F8763009
:10BD140001F038FA214641F2020007F10802FFF768
:10BD24001DFF044628BBD7F808C0DCF80C20531CC0
:10BD34004132344618685968083303C4934226468E
:10BD4400F7D1604601F01EFA01F028F9044680B9E3
:10BD540095F87C30580611D4594B6FF01204FB61EE
:10BD640002234FF482515748BB6107F1180207F0D0
:10BD7400D0FB20462037BD46BDE8F081214642F283
:10BD8400030007F10802FFF7E9FE04460028F0D19A
:10BD9400BA684D4BD168D1F80100D1F8051003C33E
:10BDA400104601F0EFF995F87C30990617D402217A
:10BDB40040F66D40FFF798FE064600284BD002215E
:10BDC4000C3007F013FD0123447022460370314602
:10BDD40040F66D40FFF7C2FE04460028C9D195F82D
:10BDE4009C301A0713D5002142F21C0007F1080207
:10BDF400FFF7B4FE04460028BBD1B868C368D3F883
:10BE04000120D3F80530C5E9382301F0BBF9082136
:10BE140042F20100FFF768FE0446E0B108210C304D
:10BE240007F0E4FC0226002221460670427082706C
:10BE3400C270027142718271C27142F20100FFF755
:10BE44008DFE0446002894D1082140F60140FFF7F6
:10BE54004BFE804610B96FF068048AE708210C3065
:10BE640007F0C4FC802343702023047084700471A1
:10BE7400447184712246C670C371414640F6014044
:10BE8400FFF76CFE044600287FF473AF01463A1DA9
:10BE94004FF60140FFF762FED0B10C4BC7E90663D1
:10BEA4004FF48451074807F1180207F032FB00F001
:10BEB400C1FD04465DE700BF0080002078800020BB
:10BEC4003E67010024570100D8800020626701000A
:10BED4007B686E46DC688AB0B4F80130032B96BFE9
:10BEE400434A444952F823106A46D3614FF400731D
:10BEF40041481384414BC2E9050142F8103F4FF415
:10BF040013513F4807F005FBB4F80120B546022A57
:10BF1400B4F803304CD1032B4AD83A4A52F82310D0
:10BF24006E468AB06A46D3614FF400733648138470
:10BF3400324BC2E9050142F8103F4FF41351304827
:10BF440007F0E7FAB546637994F806C0032B98BF67
:10BF54002E4AB4F80760D4F809006C468CB094BF3C
:10BF640052F8231023496A46C2E9073C4FF4007390
:10BF7400DFF89CE09385274BC2E905E1C2E909603B
:10BF84004FF4735142F8103F1D4807F0C2FAA5461A
:10BF9400786801F0F7F800214FF602403A1DFFF7E8
:10BFA400DDFD044630B11C4BFB610223BB6177E726
:10BFB4001049B5E77868C368B3F80130A5F8C13013
:10BFC40001F0E0F895F8C1305B077FF570AF2146CA
:10BFD4004FF603403A1DFFF7C1FD08B10F4BE3E7ED
:10BFE4007868C3685B7885F8C03001F0CBF85EE709
:10BFF4009C5A01004E65010086670100040000019F
:10C00400245701008C5A01009F6701007C5A0100EB
:10C01400B767010007000001E46701000D68010033
:10C02400F7B5144B054693F99B300C46002B1DDAEB
:10C0340014B9204603B0F0BD082C4FF0000142F2C1
:10C04400180001AA264628BF0826FFF787FD002806
:10C05400F0D1019F3246F9682846013109F064F9AC
:10C06400384601F08FF83544A41BE1E76FF08500F2
:10C07400E0E700BF00800020024BD3F824315B6965
:10C08400184700BF008000202DE9F0414C4D86B0D8
:10C094004C4E00AFEB686FF39433EB604FF0FF321C
:10C0A4004FF0FF330121464805F032FB60B140F602
:10C0B400DE23454A4549464806F062FA404080F38B
:10C0C40011884FF0030002DFEB68C3F38633022BC1
:10C0D40010D9042B11D06C4688B06A463D493E48BD
:10C0E400C2E9051303234FF4C45142F8103F07F08B
:10C0F40010FAA54604F0FCFFCCE72B7B002BF9D10A
:10C1040000220023354807F038FB0446002848D0B5
:10C114004FF0FF334FF0FF32314804F0ABFBD6F859
:10C1240000315BBB204607F059FBC6F800012046EE
:10C13400FFF7A2FF0028DDD0E84688B06A46294B05
:10C144004FF4C251C2E905300323234842F8103F9B
:10C1540007F0DFF9C546224804F066FB204600F0EC
:10C164006BFF0C22204B1F2102FB0030224640882B
:10C17400FFF7D6FB204601F005F8BBE71B4B4FF455
:10C1840082517B610223144807F110023B6107F0DE
:10C19400C0F9D6F8000100F0F5FF0023C6F800311D
:10C1A400C0E74FF42763084A1149094806F0E8F943
:10C1B400404080F311884FF0030002DFA8E700BF7E
:10C1C40080810020008000209A650100ED66010056
:10C1D400E765010058680100245701000C81002024
:10C1E400E88000203668010034910020796801005D
:10C1F400576C01002DE9F041044600F10C0630466D
:10C2040007F01CFB278A0546012F0CD840F68563EE
:10C214001F4A2049204806F0B3F9404080F31188B2
:10C224004FF0030002DF3046022107F0FFFA0378E3
:10C234000646052B21D00E3B012B21D940F68963FC
:10C24400134A1649144806F09BF9404080F31188BC
:10C254004FF0030002DF4FF0020802232146104A88
:10C264003078FFF785FA18F0020F0CD06369278243
:10C2740013FA85F5E560BDE8F0814FF00308ECE7BB
:10C284004FF00108E9E72046BDE8F04100F07ABF2D
:10C294009A650100CE650100E7650100946801001C
:10C2A400AC5A0100B0B5037E0446012B00AF27D180
:10C2B400C3681B78052B07D00E3B012B06D8FFF76C
:10C2C40099FF0020BD46B0BDFFF794FF21461748F3
:10C2D40007F055FA1649174808F08EFC0028F0DAE2
:10C2E4006C4688B06A46144B4FF4C251C2E905301B
:10C2F4000323124842F8103F07F00BF9A546E0E784
:10C304006D4688B06A460E490C48C2E905130323FA
:10C314004FF4C25142F8103F07F0FBF82046AD46F7
:10C3240000F030FF6FF01500CCE700BF048100205F
:10C3340094810020B88C0020466601002457010037
:10C34400AD680100084A0346D2F8240130B9D9681F
:10C3540039B1596929B1C2F8243170476FF07700B7
:10C3640070476FF015007047008000202DE9F84FEA
:10C37400414B00AFD3E8EF2F42F00402C3E8E12FB2
:10C384000029F7D113F8CD2CA3F1D4043B4D3C4B39
:10C394002046012A88BF1D466E46FFF71BF98AB066
:10C3A4006A46384BA346C2E905350125364BD061B0
:10C3B4001362364B4FF42351354842F8103F07F0CF
:10C3C400A8F8DFF8D080B546DFF8C490324EE379A0
:10C3D4000BF1070B9D4238DB94F870506E462846EB
:10C3E400FFF784F98CB06A46B4F87210B4F876306A
:10C3F400C2E907514FF400755362DFF8A0C0284B1F
:10C40400C2E905C015854FF4535142F8103F204846
:10C4140007F07FF8B54694F871603046FFF766F987
:10C424008AB06A46B4F874301E49C2E907631E4BE9
:10C43400C2E9051095844FF43351154842F8103F72
:10C4440007F067F8BD46BDE8F88F5846FFF7C2F815
:10C45400EA468AB06A4640F20133C2E90565D06112
:10C4640013844FF41351484642F8108F07F051F8E3
:10C474000135D546ABE700BFD48000209872010097
:10C48400C1680100C5680100000201030400000244
:10C494002457010004000001D4680100E56801008C
:10C4A40006000001236901000500000110B5FFF733
:10C4B400D7FB044608B9FFF759FF044B1B681BB1AF
:10C4C4002046BDE81040184710BD00BFAC910020C5
:10C4D400F0B58FB0424D0646D5F8243108AF83B984
:10C4E400404B6FF012047B6102234FF482513E48AB
:10C4F40007F110023B6107F00CF820461C37BD46DB
:10C50400F0BD05F1D403D3E8EF2F22F00202C3E813
:10C51400E12F0029F7D1D3E8EF4F44F00102C3E83B
:10C52400E12F0029F7D114F0010455D12F4B1E60DF
:10C53400012205F1E800114608F0BEFA05F58670FF
:10C5440008F099FA00220023CDE906236FF00803CE
:10C554004FF48062CDE90243CDE90044244B2549E0
:10C564000494254803F0EEFF2449234808F0EFF92A
:10C57400234808F052FB6FF007034FF496622149F9
:10C584001F48009404F09AFA1F491D4808F0DFF987
:10C59400D5F82431DB689847044678B16D4688B0F5
:10C5A4002A461A4B4FF4C251C5E9053003230E48FD
:10C5B40042F8103F06F0ADFFAD469EE73EB9FFF7E7
:10C5C4004FFB0446002898D1FFF7D0FE95E705F10C
:10C5D400C40004F06DFA90E76FF077048DE700BFB4
:10C5E400008000204A69010024570100AC9100201A
:10C5F4008DC00000789B0020308C0020636901000E
:10C60400B88C0020789F0020696901006F690100DF
:10C61400024BD3E8AF0FC0F380007047D4800020F2
:10C6240000487047975D0100F8B506460024094D9F
:10C63400EF79E3B29F4202D86FF0010007E0294688
:10C64400304606F069FF0735631C08B12046F8BD83
:10C654001C46EEE70080002037B504460D4671B154
:10C664002846124906F058FF48B929461048C4EB39
:10C67400C404204406F05DFF002003B030BD6846CA
:10C6840006F038FF0028F8D16846FFF7CDFF0028F0
:10C69400F5DA074BC4EBC4006946184406F049FFB9
:10C6A400002DE9D001462846E4E700BFDD6401001F
:10C6B4000080002038B506221149054608F0DAFD4D
:10C6C400C8B1062142F20500FFF70EFA0446A0B1F4
:10C6D400062229460C3007F08FF80022214642F248
:10C6E4000500FFF73BFA38B90548294606F01CFF58
:10C6F400012300F8013C002038BD6FF06800FBE71F
:10C704006980002070B50D46044686B0F0B1234917
:10C7140006F002FFD0B92378012B04D1A37903F0EA
:10C72400C003C02B0DD01E4B4FF48251059302233E
:10C734001C4804AA049306F003FF6FF0150006B02A
:10C7440070BD2046FFF770FF002821DA002DF4D1D8
:10C75400154DEB79012B1ED005F1D403D3E8AF3F7F
:10C76400DB0707D4002CE8D020460C4906F0D4FEA1
:10C774000028E2D1EE792146731C3046EB71FFF7B5
:10C784006BFF08B93046DAE7EB79013BEB71D6E78A
:10C794006FF07700D3E76FF00B00D0E7DD640100A2
:10C7A4007E6A01003C57010000800020F0B5044679
:10C7B40089B060B9194B079302234FF48451184888
:10C7C40006AA069306F0BCFE002009B0F0BD0021C5
:10C7D40041F2090001AAFFF7C1F9064608B1114B5D
:10C7E400E9E7019F0622FD680F490135284608F054
:10C7F40041FD28B1062228460C4908F03BFD18B932
:10C80400384600F0BFFCDFE72946601C06F08CFECA
:10C814003846267000F0B6FC0120D6E7AC6A010069
:10C824003C570100C56A0100EA640100E4640100A8
:10C8340007B56846FFF7BAFF044BD87118B16946CB
:10C844000020FFF709FF03B05DF804FB008000201F
:10C85400F0B5244B054693F8C2300E46DB0789B089
:10C864000DD4214B0793002402234FF484511F4815
:10C8740006AA069306F064FE204609B0F0BD002126
:10C884004FF6094001AAFFF769F9034608B1184BAE
:10C89400E8E701981627C26854780232B44228BFE8
:10C8A40034469C420EDC00F06DFC002CE4D1114BAC
:10C8B4004FF48451079302230C4806AA069306F00A
:10C8C4003FFED9E7114607FB035602F1140C51F859
:10C8D40004EB614546F804EBF9D109880133318052
:10C8E4001632DEE700800020E36A01003C570100B5
:10C8F4000F6B01002F6B010070B5154D88B0EC79FA
:10C904002CB9012102A8FFF7A3FFE871C0B90021E7
:10C91400084608B0BDE87040FFF7F4BE02AB06FB62
:10C9240002310DF1010006F0FFFD012369461046B6
:10C934008DF80030FFF790FE013410B108B070BDDF
:10C944001626EB79E2B29342E8D80020F6E700BF5E
:10C95400008000202DE9F04190460E461D46024617
:10C9640086B078B173B13103047816D573070ED548
:10C974002D4B4FF48251059302232C4804AA0493AF
:10C9840006F0DEFD6FF0150006B0BDE8F08106F09C
:10C99400E2FD0028F8D1012341E0F70730D5244F08
:10C9A400B8F1000F13D0B0060AD4C4EBC403FB5C87
:10C9B400012B13D02B70B20620D543F002030BE0F9
:10C9C40097F8D8305906F0D46FF08500DCE7C4EB53
:10C9D400C403FB5C012B01D02B700FE0072101FB8A
:10C9E40004711046013106F0AEFD0028CCD1C4EB31
:10C9F400C4043B5D2B70B8F1000FDCD10020C3E709
:10CA040073070ED50A4EC4EBC407F35D012BE3D1C3
:10CA1400072111FB0431314406F095FDF35D2B70C1
:10CA2400B2E706F098FDB6E7586B01003C570100E9
:10CA34000080002030B5134D87B0EB791BB1002482
:10CA4400204607B030BDFFF7F3FE044650B10E4B4D
:10CA5400059302234FF482510C4804AA049306F070
:10CA64006FFDEDE7EB79002BE9D1FFF745FF0446B5
:10CA74000028ECD1681CFFF71DFE04460028DFD017
:10CA8400034BE5E700800020776B01003C57010071
:10CA9400966B01002DE9F04F0C4689B02021924697
:10CAA4000090FFF721F8054600285BD020210C30C8
:10CAB40006F09CFE20228146002108F042FC00265C
:10CAC40009F1010B04EBCA0A0023D4F80080626860
:10CAD40093420CD30834A245F6D10022294600988B
:10CAE40089F8006009B0BDE8F04FFFF737B898F84F
:10CAF4000120B01C11181F2998F800C01BD9BCF1E3
:10CB0400090FC0F11F0201D1002A12DC174B079351
:10CB14000223069300234FF48251154806AAFDF719
:10CB240055F9284600F02EFB6FF0150009B0BDE85A
:10CB3400F08F4FF0080CD7B2791C0BF80610711C5B
:10CB4400C9B20BF801C0D8F804105BFA80F0019365
:10CB5400023708F0E9FB019B3744FEB2013308F1C8
:10CB64000808B4E76FF06800E0E700BFB96B0100A4
:10CB740014570100F8B545680646690535D40469BB
:10CB840014B115F0010330D0194F3078FB7983428A
:10CB94002BD9C0EBC00007221649384408F06AFBC1
:10CBA400A8B115F0010306D197F87020082A02D81D
:10CBB400B2689F2A19D915F0300F09D0ACB1EA0632
:10CBC4000AD405F46035B5F5603018BF0120F8BD0E
:10CBD400EB0601D4002CF4D1D6E902239A4204D8FE
:10CBE4001F2A02D9B3F5804FEBD90020EFE700BF2D
:10CBF40000800020DD640100F0B5054685B00F48D3
:10CC040006F0D3FC1F460306164613D50B4806F060
:10CC1400CCFC04460A4806F062FDC4F3C0240A466C
:10CC2400029033462946CDE90074054806F0E5FC38
:10CC340005B0F0BD6FF00A00FAE700BF28800020BD
:10CC4400188000202DE9F04FD1F810A091B0BAF16E
:10CC5400000507467C4818BF0125059306F0A5FC8E
:10CC640040070C46934640F1E3800846FFF782FFF5
:10CC740028B96FF01505284611B0BDE8F08F20469D
:10CC840006F080FC81460028F3D007F110084046E6
:10CC940006F08BFC0106C0F3C01300F1CC80CDE993
:10CCA4000733CDF82330A3686068ADF81830E36823
:10CCB4006FF40051ADF81A3006F068FC8DF82500C9
:10CCC400614806F075FC2378604A3B7082F86F3047
:10CCD40038462A4661680DF11D03FFF73BFE054601
:10CCE4000028C8D107F10900BAF1000F13D0216957
:10CCF40006F069FC204606F002FD63680646DA0782
:10CD040016D4980503D41A9B0BB9022E4AD10223D8
:10CD14008DF81C3019E04E4906F055FC204606F00B
:10CD2400EEFC63680646DD07EBD58DF81CA00CE02D
:10CD340013F0100F0CBF0123042321690DF11E0011
:10CD44008DF81C30A94606F03EFC0F2142F2060085
:10CD5400FEF7CAFE0546002870D00F2206A90C3043
:10CD640006F04AFD2946002242F20600FEF7F6FECE
:10CD7400054600287FF47FAFBAF1000F18D038467B
:10CD8400012106F0CCFC074650B3324B0F9302232B
:10CD94000E9300234FF482512F480EAAFDF716F884
:10CDA4003D4668E70323DDF868908DF81C30CCE736
:10CDB4001B9B594600933846CDE901961A9B059A68
:10CDC40006F01BFC00283CD13846012106F0A7FCE4
:10CDD40007460028D9D1676887F00207C7F34007E0
:10CDE400404607F001020E2106F0F4FB731E5A427E
:10CDF4005A414046082106F0EDFBB11E4A424A4121
:10CE04004046092106F0E6FB626840460A2102F02A
:10CE1400010206F0DFFB4A4640460B2106F0DAFB2E
:10CE240062680D214046C2F3800206F0D3FB22E77C
:10CE34006FF00A051FE76FF077051CE76FF06805D0
:10CE440019E7054617E700BFD480002000800020C2
:10CE5400DD640100D26B01001457010073B515465F
:10CE6400069A0C46CDE900322B460A460146114883
:10CE7400FFF7E8FE21460646002340F201109D42DA
:10CE840002D1304602B070BD0A88824204D14A6899
:10CE940012B11278D20702D401330831EFE7064900
:10CEA400064807F0C0FE4FF470220023034803F045
:10CEB400D9FEE6E718800020FDCE00003080002077
:10CEC40008B50B4806F050FC6FF48041094806F0A1
:10CED4006FFB084806F069FB03461B06C0F3C0104D
:10CEE40005D5BDE808400021014806F018BC08BD7E
:10CEF400188000202880002098B500AFFFF7E0FFDD
:10CF040078B16C4688B06A46074BC2E90530032302
:10CF140042F8103F00234FF4C4510448FCF756FF75
:10CF2400A546BD4698BD00BFED6B01001457010036
:10CF340030B593B020210AA8FFF772F8044618BB55
:10CF440007F0CAFF4FF47A75A0FB052305FB0131F6
:10CF54000823D20B42EA4142C90BCDE902210093D6
:10CF640020220B486B440AA906F018FA60B9094B51
:10CF740009930223089323466FF004044FF482516B
:10CF8400054808AAFCF722FF204613B030BD00BFB5
:10CF9400608D0020136C01003457010010B588B077
:10CFA40008216846FFF73CF8044690B90822694610
:10CFB4000B4806F0D3F978B90A4B0793022306937A
:10CFC40023466FF004044FF48251074806AAFCF785
:10CFD400FDFE204608B010BDFFF7AAFF0446F8E79F
:10CFE400608D00202A6C01003457010038B50D46CD
:10CFF400044698B191B10B4A06F0E9F9431C07D1F4
:10D00400FFF796FF48B929462046064A06F0DFF99D
:10D0140001280CBF00206FF0040038BD6FF015002C
:10D02400FBE700BF608D00202C22024B02FB003086
:10D03400704700BF6C8300202C21827A054B01FBD2
:10D0440002339A6A1B7F801A1B3323F00303B0FB5D
:10D05400F3F070476C83002038B52C24827A094B96
:10D0640004FB02335B6A0C685B681A68944294BFE1
:10D074000C600A60D3E90054FFF7DEFF05FB0040B3
:10D0840038BD00BF6C8300202DE9F04385B0054610
:10D09400684690461C46039107F020FFDDE90067CF
:10D0A4004FF02003EFF3118983F31288BFF36F8FDE
:10D0B4006B8B002B45D02A8B9A4229D9002200235E
:10D0C400284603F07DFB044610B389F31188BFF3AF
:10D0D4006F8F039B002B45D032462C263B46684677
:10D0E40007F020FF254DA37A204606FB03535B6A15
:10D0F40003A91B681F68DDE90023B84760610028A5
:10D1040031D1A07A214600FB065007F0CBFC24E085
:10D11400698B4B1E6B8389F31188BFF36F8F2B7F51
:10D124002A8BAC6A1B3323F00303521A02FB034419
:10D13400124B134AEB1A9B105343A3722B7FE372D7
:10D14400C7E789F31188BFF36F8F23464246284609
:10D1540003F036FB04460028BBD10024204605B06A
:10D16400BDE8F0836361002301226360228123828E
:10D17400039A63696282E360F0E700BF6C83002076
:10D18400A38B2EBA2DE9F041044600262C27154D19
:10D194000CB9BDE8F081237AD4F80480013BDBB2FA
:10D1A4002372002BF5D1616959B1637ADB0707D487
:10D1B400A37A204607FB03535B6A1B689B68984766
:10D1C4006661A07AE66007FB005366601B6A1BB1C8
:10D1D400204698474446DBE7214600FB075007F00A
:10D1E40061FCF7E76C830020B0B5017E0446022998
:10D1F40000AF18D0042915D039B36D4688B06A46FB
:10D20400134BC2E9053103234FF4C251114842F8CC
:10D21400103F06F01FFBAD462046FFF7B3FF00208A
:10D22400BD46B0BD052104F10C0006F0F6FA228AD1
:10D23400E1680948FCF72AF80028EDDA6D4688B061
:10D244006A46064BC2E90530DDE70121EBE700BF82
:10D254006A6C01002C570100B09100207A6C010027
:10D26400B0B50C4800AFFFF76DF8041E0EDA6D463A
:10D2740088B06A46084B4FF4C251C2E9053403230F
:10D28400064842F8103F06F0E5FAAD462046BD4692
:10D29400B0BD00BFF05A0100926C01002C57010090
:10D2A400014803F0C1BA00BF3C830020B0B51A485E
:10D2B40000AFFBF78BFF0446A0B110F1780F11D03B
:10D2C4006D4688B06A46154BC2E9053403234FF412
:10D2D400C251134842F8103F06F0BCFAAD4620464E
:10D2E400BD46B0BD0F4A10490B48FBF79DFF0446ED
:10D2F40020B16D4688B06A460C4BE5E74FF4004216
:10D3040000230B4803F0B6FA04460028E7D06D4624
:10D3140088B06A46074BD7E7B8540100BC6C0100DB
:10D324002C570100A4810020B0910020EC6C010076
:10D334003C830020106D01002DE9F04F89B090F876
:10D3440000800646B8F1040F0C4600AF01F1FF332C
:10D354000DD0B8F1050F00F0A880B8F1020F40F02D
:10D36400CF80032B6ED86E4BC7E9068305E0012BF3
:10D374000ED86C4BFB610223BB614FF482516A48A7
:10D3840007F1180206F066FA2437BD46BDE8F08FAF
:10D3940043783E2B3CD190F803A0AAF10203D3F1C9
:10D3A400000A4AEB030AB6F80130033CB4EB132F2E
:10D3B400BB8033D1BAF1000F2DD04FF000084FF0ED
:10D3C40000094FF0020B42464B4651463879FEF7AE
:10D3D4006BF9054620B300F10C080222391D4046C2
:10D3E40006F00AFA404606F02DFA844226D96E4623
:10D3F40088B06A464D4BD061C2E9053404234FF42A
:10D404000151494842F8103F06F024FAB54638E085
:10D414004FF0000AC7E74FF4A028D0E7444BA9E730
:10D42400BAF1000FB0D1434B4FF48451C7E906B3AE
:10D434003D4807F1180206F00DFAC4E72246F11C34
:10D4440040462CE0002200230320FEF701F90546A4
:10D45400D8B10422D6F8013000F10C097B604846AB
:10D46400B91806F0C9F9FB88053C9C420FD0324B31
:10D47400C7E906834FF482512B4807F1180206F0DE
:10D48400E9F92846FFF77EFE7EE72C4B6CE7484619
:10D4940006F0D8F98442AAD822464846711D06F0FF
:10D4A400ABF92846FEF7FEFE6EE7032B01D8244BAA
:10D4B40060E7002200234046FEF7CAF80546A0B103
:10D4C4000422D6F8013000F10C087B604046B918FC
:10D4D40006F092F9FB88053CC3F30D039C4206D089
:10D4E400184BFB610223BB61C4E7174B42E740467C
:10D4F40006F0A8F984423FF67AAF2246711D9FE7F1
:10D504006C4688B06A46114B4FF4C251C2E90538E3
:10D514000323054842F8103F06F09CF9A54633E77B
:10D52400CD6D0100306D01002C570100AA6D010082
:10D53400516D0100756D0100066E0100EC6D010076
:10D54400286E0100616E0100476E0100836E0100C8
:10D55400084B70B5C31A0D4607499B10044659433E
:10D564004022064806F095F92B4601462046BDE8C0
:10D5740070401847CC910020B76DDBB62C540100E5
:10D58400402373B50B4C0093041B0B460D460A490C
:10D59400A41061430646094A094806F0A6F9011E8B
:10D5A40005DA30462B4602B0BDE87040184702B099
:10D5B40070BD00BFCC910020B76DDBB659390100B6
:10D5C4002C5401002DE9F8430022012106460520D0
:10D5D400FDF7D6F8114801F0D3FC114B984219D14C
:10D5E40001F0DEFC00244FF01C090C27DFF8348026
:10D5F4003569414609FB045004F02AFF002807DB83
:10D60400012307FB04551C44042CAB67F0D1002014
:10D61400BDE8F8836FF00400FAE700BF61D60000AC
:10D624000000AD0B085B010001460C2300224B43B4
:10D6340070B50848C41878331844D4E91C562267D6
:10D6440006F014F92DB132462B46BDE8704002486D
:10D65400184770BDCC9100202C540100062812D824
:10D66400DFE800F0040F1111110D0B00064B986F49
:10D6740010F0070007D1FFF7D7BF0220FBE7032014
:10D68400F9E70120F7E77047CC91002008B54FF087
:10D694002003EFF3118183F31288BFF36F8F114AD4
:10D6A400136843F002001060DA0708D481F311888C
:10D6B400BFF36F8FBDE80840012001F085BC0A4B21
:10D6C400D3F80C24D3F80C34DB07EFD5074806F065
:10D6D400CDF881F31188BFF36F8FBDE808400020B7
:10D6E400FFF7A2BF6C92002000500040449200203B
:10D6F4007FB500220123CDE9022304ABCDE9043335
:10D70400094A6B46CDF800D0CDF804D006F01BF9D9
:10D71400002805DB4FF480420023684603F0AAF892
:10D7240007B05DF804FB00BF8F39010010B54FF05E
:10D734002003EFF3118483F31288BFF36F8F074A3A
:10D74400136823F00201DB07116002D4012006F004
:10D75400A9FA84F31188BFF36F8F10BD6C92002077
:10D764002DE9F041012207463549D1E8EF3FC1E8F0
:10D77400E02F0028F9D133B9324933484B60CB60EC
:10D784008A6004F078FE7B1E012B28D8012F06D175
:10D794002E4BD3F81C3403F00303022B1FD007F0E5
:10D7A400D0F80546E8B92A4B1B78D3B102220646C5
:10D7B400264BC3F80823254CDFF89880D4F81824A6
:10D7C400D4F81834D20316D503F00303022B01D086
:10D7D400012F10D175B386F31188BFF36F8FBDE8A5
:10D7E400F0814FF02003EFF3118683F31288BFF327
:10D7F4006F8F0125DFE7C5B13046FCF711FFD4F880
:10D804001835DBB2012BD9D1D4F80421002AD5D0A4
:10D814000022C4F80421D4F804210222C4F81825F3
:10D824002022C8F88021A360C8E70021212003F04A
:10D83400E1FCE4E70222054BC3F80423CFE700BF71
:10D84400C8910020B8910020E891002000500040C9
:10D854007294002000E100E008B5074806F0FAFFE2
:10D8640038B10648FDF71EFE0448FBF745FA0020D0
:10D8740008BD6FF01200FBE79054010085D800004A
:10D884000A2838B50446074D04D1AB680D21284653
:10D894005B689847AB6803485B68E1B298472046E9
:10D8A40038BD00BF9054010030B5406801F01F043A
:10D8B400057BB2F5001F85B044EA451405D1204626
:10D8C40001F0E0FE002005B030BD0025B2F5800F68
:10D8D400CDE9025514D1B3F1007F0CBF0423052315
:10D8E4008DF8083000232046194602AA01F0ECFC0A
:10D8F400224B98423CD10121204601F077FEE1E71A
:10D90400B3F1C06F27D0B3F1007F14BF012302230A
:10D914008DF80830836823FA01F111F00101E1D197
:10D92400B2F1A07FDED104F01F03620903F180038A
:10D9340013D0012A1FD1124A52F82330DB07D1D465
:10D944000DF107052946204601F0FAFD0D4B9842DA
:10D9540005D00395C6E70323DAE70B4AECE728462C
:10D9640001F03EFE054B9842F3D06FF00B00AAE79E
:10D974006FF01500A7E751F82330FFDE0000AD0B70
:10D98400002884400400AD0B0025844010B501F04C
:10D9940017FE044668B901F0EBFD084B98420AD122
:10D9A4002146074801F0C6FD224605212F20FCF739
:10D9B400E7FE002010BD6FF00400FBE70000AD0B94
:10D9C400C9D900004209034670B502D0012A17D014
:10D9D40070BD0D4E326951680029F9D0012503F05C
:10D9E4001F030C689D400029F2D08A682A4002D0A7
:10D9F40030464B6898472CB1236821461C46F2E711
:10DA0400024EE7E72346F8E754540100405401006E
:10DA14002DE9FF41476801F01F053B7B144645EAA9
:10DA240043150E4628460DF1070101F089FD14F453
:10DA3400403F80460DD1284601F04AFE3C4B9845B4
:10DA440003D19DF8070001F0C5FD002004B0BDE836
:10DA5400F08100232846194602AACDE9023301F0D9
:10DA640033FC334B984214D1804503D19DF8070011
:10DA740001F0B0FDA3034CD540F206332340B3F5C7
:10DA8400837F1AD00DD8062B18D005D8B3B1022B3A
:10DA940032D06FF01500D9E7B3F5807FF9D10123B7
:10DAA4000CE040F20222934228D0B3F5407F27D005
:10DAB400B3F5007FEDD1022300E007238DF8083091
:10DAC40084F48033C3F30043E0068DF809304CBF7F
:10DAD4000323C4F3401321038DF80A3012D5012324
